:02000002B0004C
:1040000000400B0034920B00000006000C0005027B
:084010000401A60F00000000EE
:04401800A47C0B0079
:10401C0009480A49884208B505D0094A824202D0AB
:10402C00121A03F075FD0748074A0021121A03F013
:10403C007DFD014808BD00BF60E00320488D0B00EA
:10404C0024E5032024E50320EDE7032070B5074E9B
:10405C00074C02F0F3FCA41BA4080025AC4200D1D1
:10406C0070BD56F8043B98470135F7E7F48C0B000C
:10407C001C8D0B0000F030BC08B500F0F7FCBDE85F
:10408C00084002F093BC02F0E7B802F0E5B802F089
:10409C00EBB8000008B5034A03490C2002F030F8D5
:1040AC00FEE700BFED5D0B00B87C0B000078B0FAAA
:1040BC0080F0400970470123037070472F2810B51A
:1040CC0004460DD9094A0A490A2002F019F8094B8D
:1040DC0004F01F04D3F81005E04000F0010010BDFF
:1040EC001F28F4D84FF0A043F4E700BFED5D0B00A0
:1040FC00CD7C0B00000300502DE9F843DFF82C8138
:10410C00876898F80030484DBFF35B8F13F0010FB0
:10411C00044609D14046FFF7C9FF28B101F0F8FD6C
:10412C0028604046FFF7C7FFBFB22B683F01DE5D3A
:10413C0098F80030BFF35B8FD9074FEA461909D4C2
:10414C003A48FFF7B3FF28B101F0E2FD2860374889
:10415C00FFF7B1FF2B683B445E7806F01F0646EA7A
:10416C0009063046FFF7AAFF3046FFF7A7FFE768BE
:10417C0098F80030BFF35B8FDA07C6B209D42B482E
:10418C00FFF794FF28B101F0C3FD28602748FFF723
:10419C0092FFBFB22B683F0113F8079098F80030DC
:1041AC00BFF35B8FDB074FEA491909D41F48FFF7B0
:1041BC007DFF28B101F0ACFD28601C48FFF77BFFA8
:1041CC002B681F447D7805F01F0545EA0905284634
:1041DC00FFF774FF2846FFF771FF237CC0B203F092
:1041EC0003030EB143F0040308B143F008039A082B
:1041FC00013B22740D2B0BD8DFE803F0070C0F0CDE
:10420C000A120707120A0C0F0C076369013363616A
:10421C00BDE8F8836369013BF9E763690233F6E7AC
:10422C006369023BF3E700BF28E5032024E5032084
:10423C0070B50C1E064615460BDA0A2A09D12D213B
:10424C0002F0D8FA6142EAB23046BDE8704002F0A2
:10425C00EABA2146F7E710B403685A6899681B68F4
:10426C00541001EB6200D20748BF0A595DF8044BA9
:10427C0048BFD3581847012A38B5044602D10B68F9
:10428C00236003E0022A03D0032A0DD0002038BD9E
:10429C000C200D68FFF7F7FE03460028F0D095E8D8
:1042AC00070083E80700EBE700680028EED00C213C
:1042BC00FFF7EDFEEAE70000F0B58DB002AD85E842
:1042CC000600064695E8030005AC84E805001F4689
:1042DC000C2000230A93FFF7D6FE024620B194E887
:1042EC00030082E8030097600B4B0B930B4B0A9374
:1042FC009DF85030089200939DF848209DF94C3061
:10430C0008A9304602F010FD0A9B1BB108A9032234
:10431C00084698470DB0F0BD63420B0083420B007A
:10432C000EB403B503AB002153F8042B019302F038
:10433C0098FA02B05DF804EB03B0704738B58469A5
:10434C000A4B036005467CB16368013B63605BB953
:10435C00236820469B689847A368013BA3601BB960
:10436C0023682046DB689847284638BDAC8A0B008A
:10437C0010B50446FFF7E2FF20461C21FFF787FE2D
:10438C00204610BD2DE9F0418CB005460F4668461D
:10439C007749DDF8488014461E4602F044F9DFF8F0
:1043AC0028E27449DEF800307348744ADFF81CC206
:1043BC00AB4219D10B68BB4216D10368A34213D18F
:1043CC001368B34210D1DCF8003043450CD102F035
:1043DC0057FC6B49FFF7A4FF0024684602F0D8F89D
:1043EC0020460CB0BDE8F081CEF800500F600460A0
:1043FC001660CCF80080002F00F0B580614968464B
:10440C0002F03FF9694608A802F030F90A22414649
:10441C0004A802F048F904A908A802F08CF95A493A
:10442C0002F095F90146684602F011F904A802F071
:10443C00AFF808A802F0ACF8694608A802F016F923
:10444C000A22314604A802F02EF904A908A802F0A9
:10445C0072F94E4902F07BF90146684602F0F7F812
:10446C0004A802F095F808A802F092F8694608A88A
:10447C0002F0FCF80A22214604A802F014F904A95F
:10448C0008A802F058F9424902F061F90146684661
:10449C0002F0DDF804A802F07BF808A802F078F826
:1044AC003C493D480023502202F0DCFD0446002824
:1044BC0093D002F0E5FB394902F0ABF902F0E0FBD6
:1044CC00009902F0A6F93649334802F08FF93549C4
:1044DC00314802F08BF934492F4802F087F90A224F
:1044EC002D482946FFF7A4FE30492B4802F091F9DC
:1044FC002F49294802F08DF92E49274802F076F908
:10450C002449254802F085F92B49234802F06EF91D
:10451C000A220299204802F086F91F4802F06DF930
:10452C0026491D4802F075F91B4802F066F90099FE
:10453C00194802F06EF902F0A3FB214902F069F967
:10454C0002F09EFB1449044608A802F0D1F9089920
:10455C00204602F05EF908A802F01AF80E4802F0A4
:10456C0037FF012439E71749684602F08AF897E7C4
:10457C00F2800B009CE50320A4E5032094E50320C6
:10458C00F17C0B000D7D0B001F7D0B00277D0B00BC
:10459C003A7D0B0073810B0030E503203C7D0B0052
:1045AC00537D0B004A810B005D7D0B00667D0B007B
:1045BC008F7F0B00767D0B007D7D0B008E7D0B00BD
:1045CC00B57D0B002F7D0B0098E50320A0E50320A3
:1045DC001FB525490446684602F025F802F050FB49
:1045EC0022462249FFF79CFE2149684602F085F8D5
:1045FC00204A2149128851F824102048002302F047
:10460C0031FD28B31E491D4802F003F91D491B4812
:10461C0002F0FFF81C49194802F0FBF81B49174837
:10462C0002F0F7F81A49154802F0E0F8029913481D
:10463C000A2202F0F8F8114802F0DFF80F4802F0F5
:10464C00DCF800990D4802F0D1F80C4802F0D5F8CE
:10465C000A4802F085FD10B1084802F0B9FE684620
:10466C0001F096FF04B010BDF2800B00BE7D0B0074
:10467C00CC7D0B00A4E0032090E0032078E5032020
:10468C00F87E0B00207F0B00467F0B00837F0B0016
:10469C007D7D0B001FB525490446684601F0C3FF1C
:1046AC0002F0EEFA22462249FFF73AFE214968460B
:1046BC0002F023F8204A2149128851F8241020488E
:1046CC00002302F0CFFC28B31E491D4802F0A1F8CC
:1046DC001D491B4802F09DF81C49194802F099F835
:1046EC001B49174802F095F81A49154802F07EF854
:1046FC00029913480A2202F096F8114802F07DF84C
:10470C000F4802F07AF800990D4802F06FF80C4847
:10471C0002F073F80A4802F023FD10B1084802F0C9
:10472C0057FE684601F034FF04B010BDF2800B0058
:10473C009A7F0B00A97F0B00A4E0032090E00320DC
:10474C0078E50320F87E0B00207F0B00467F0B00E2
:10475C00837F0B007D7D0B002DE9F04F0F46044647
:10476C00164689B00221384602F0BEFF02213046BF
:10477C0002F0BAFFDFF858B1E6600023C4E9013754
:10478C00236063614FF4FA6001F02AFBD4F808A0AF
:10479C009BF800304D4DBFF35B8F13F0010F09D127
:1047AC005846FFF783FC28B101F0B2FA286058464E
:1047BC00FFF781FC1FFA8AFA2B684FEA0A1A13F8E2
:1047CC000A809BF80030BFF35B8FD9074FEA48197A
:1047DC0009D43F48FFF76AFC28B101F099FA286028
:1047EC003B48FFF768FC2B68534493F8018008F0B2
:1047FC001F0848EA09084046FFF760FC4046FFF7EF
:10480C005DFCD4F80CA09BF80030BFF35B8FB0F1CB
:10481C00000818BF4FF00108DA0709D42C48FFF73D
:10482C0045FC28B101F074FA28602948FFF743FCD5
:10483C001FFA8AFA2B684FEA0A1A13F80A909BF8A7
:10484C000030BFF35B8FDB074FEA491909D42048CE
:10485C00FFF72CFC28B101F05BFA28601C48FFF72D
:10486C002AFC2B689A449AF8015005F01F0545EA7A
:10487C0009052846FFF722FC2846FFF71FFC08B164
:10488C0048F00208DFF84C9084F8108000254FF0B7
:10489C00FF3823462A4649463846CDE9005802954A
:1048AC00CDF810900595FFF707FDCDE90695CDE9FC
:1048BC000185009508AA304612E906002346FFF749
:1048CC00FBFC204609B0BDE8F08F00BF28E50320B3
:1048DC0024E5032005410B0030B599B002F0D0F966
:1048EC004FF4165102F0BCF9002001F091FA43F696
:1048FC0098250446002001F08BFA001B61F10001A1
:10490C00A84271F1000307D202F0BAF902F0ACF937
:10491C0010B901F091FCEDE702F0B2F902F0A4F944
:10492C003C2202213748384D00F00AFF354800F090
:10493C0097FEC82002F00EF8324800F019FE012450
:10494C002C23CDE901347023142210212D4800931F
:10495C002E4B01F0B9F82B4800F082FE3C2229487E
:10496C00022100F0EDFE2146264801F0B1F9224665
:10497C002448274C002101F0B0F921222549214877
:10498C00FFF7CEFC1F4800F06BFE0021102002F058
:10499C00ABFE214800F0BDF91F4800F0F3F90023ED
:1049AC001A461946606801F0FFFB382200210AA85C
:1049BC0003F0BCF84C230593184B06930A220023F2
:1049CC00CDE90723194605AA6068099301F00CFC90
:1049DC00002360681A46194601F0C6FB0022606885
:1049EC00114601F0C9FB28B102F04AF92946FFF73C
:1049FC0097FCF3E702F044F90949FFF791FC19B071
:104A0C0030BD00BFB0E50320EE800B007F810B00B2
:104A1C0018E70320D5800B00FCE50320E3800B0096
:104A2C00F0800B002DE9F8430E4C0F4E20608946A8
:104A3C0090461F462168494512DC424689B23046F1
:104A4C0000F04CFB2068411C3A4689B2304600F01D
:104A5C0045FB304600F096F9256802352560E9E7FC
:104A6C00BDE8F88314E60320FCE503202DE9F341AF
:104A7C00564B574D1888574C02F060FE564B003879
:104A8C0018BF0120187002F081F96E6902F080F9EC
:104A9C005F2E4FDC26602368002B06DA002626608A
:104AAC0002F074F96E6102F073F9E52300930023B0
:104ABC0019465F222068494D01F040FF2860C1B2C1
:104ACC00474800F04EFB474B474A484948481B684B
:104ADC00126809680068FFF7A5FF02F0D1F82B688F
:104AEC0022684449FFF71CFC02F0CAF82B682268C4
:104AFC004149424D424CFFF713FC102002F031FEAD
:104B0C00404BFF261860C7284FF001032E6023602E
:104B1C002CDC3D4D2068032814DC0023009619463C
:104B2C002A68FFF72FFC0120FFF7B4FD236801333F
:104B3C002360EFE75F26266002F028F96E6102F031
:104B4C0027F9A8E70423314D2360FF2620680628A7
:104B5C0039DC0023009619462A68FFF713FC022063
:104B6C00FFF798FD236801332360EFE7DFF89880A7
:104B7C00274F2068032812DC00962B68D8F80020F9
:104B8C000121FFF7FFFB02F07BF83946FFF7C8FB6A
:104B9C000120FFF71DFD236801332360E9E704239F
:104BAC001A4E2360FF27206806280CDC00972B6820
:104BBC0032680121FFF7E6FB0220FFF709FD2368AD
:104BCC0001332360EFE702B0BDE8F08180E0032001
:104BDC00E4E5032018E60320ACE5032010E60320EF
:104BEC00FCE5032088E0032084E003208CE0032014
:104BFC001CE60320F3800B00FA800B00A8E50320D1
:104C0C002CE5032020E6032064E0032060E0032071
:104C1C0001810B0008B51E491E4801F004FD1E4A17
:104C2C001E4B12681A601E4A1E4812685A601E4AB1
:104C3C0012689A601D4A1268DA601D4A12681A617D
:104C4C001C4A12685A611C4A12689A6102F00AFCEA
:104C5C001A4802F007FC0421194800F073FC0223E7
:104C6C0005221021174800F07BF8174B17481A88BB
:104C7C00174B1988FFF770FD164B0022C3E9002271
:104C8C00A2F580329A60BDE80840032001F048BAD2
:104C9C00F2800B00D4E5032068E503204CE50320EB
:104CAC006CE0032030E5032074E0032064E0032073
:104CBC0060E0032068E0032070E0032078E5032027
:104CCC00B0E50320FCE503207CE00320E4E50320B1
:104CDC0078E003206CE5032038B50446C0680D4627
:104CEC0008B101F0C1FAA379062B0CBF04200320F4
:104CFC0010FB05F080B2A08001F0AEFAE06028B1A4
:104D0C00A288002102F012FF658038BDA08060806F
:104D1C00FBE710B504460121C07902F0E5FCE0790F
:104D2C00002102F0F2FC0123237010BD37B503788B
:104D3C0005460C461BB1C079002102F0D5FC2B783E
:104D4C00EC715BB1A0B20121019002F0CDFC019895
:104D5C00002103B0BDE8304002F0D7BC03B030BD39
:104D6C0070B50025044616468371C0E903550570DD
:104D7C000572FFF7B1FF20463146FFF7D7FF2046FB
:104D8C0070BD0000C368002B00F0A4812DE9F04F2A
:104D9C008379023BDBB2042B9CBFBF4A52F8234001
:104DAC0085B0054688BF322401F022F82B69C01A61
:104DBC00A042F9D3B94CAE88D4F800351BB9D4F85D
:104DCC006035002B7EDBB64CD4F8003523B9D4F813
:104DDC006035002BC0F26E81B24CD4F80035002B3C
:104DEC0000F04481EB79B04AB04C1268190102EB27
:104DFC000313575CAE495B78D1F8FC2042F080720B
:104E0C00C1F8FC20226803F01F0343EA4713012773
:104E1C003A432260A988D5F80C80D4F804909F40BE
:104E2C00002944D04FF0000E72464FF0A04118F804
:104E3C0001CB0820802663689B1A462BFBD962683D
:104E4C00D1F808351CEA060F43EA0703C1F8083508
:104E5C002FD063689B1A282BFBD9D1F80C3501385D
:104E6C0043EA07034FEA5606C1F80C35E3D1AB8889
:104E7C000EF1010E1FFA8EFE7345D8D84FF4307127
:104E8C0003FB01F163689B1A462BFBD96368A3EB08
:104E9C0009098945C0F0E4804FF4967000F0A0FF3A
:104EAC00A988D5F80C80D4F804900029BAD10A4608
:104EBC00E8E763689B1A112BCFD863689B1A112BF8
:104ECC00F7D9CAE7D4F86435002BBFF67CAFD4F819
:104EDC006835002BBFF677AFD4F86C35002BBFF6D6
:104EEC0072AF3601331D1846009301F0B5F9002856
:104EFC003FF478AFAB88002B00F0ED80EA68013B03
:104F0C0012FA83F702F1FF3E002348F2060248F240
:104F1C000D011EF801CF1CF0800F0CBF93468B4681
:104F2C001CF0400F0CBF16460E461CF0200F0CBF99
:104F3C009046884603F10109CDF80880019603F1EB
:104F4C0002081FFA89F9019E20F813B01FFA88F89D
:104F5C0020F81960029E20F8186003F103081CF079
:104F6C00100F1FFA88F80CBF93468B4620F818B028
:104F7C0003F104081CF0080F1FFA88F80CBF9346C5
:104F8C008B4620F818B003F105081CF0040F1FFA2B
:104F9C0088F80CBF93468B4620F818B003F1080A2A
:104FAC0003F1060807339BB21CF0020F1FFA88F8B6
:104FBC000CBF93468B46CDF80CA01CF0010F20F8CB
:104FCC0018B015BF20F8131020F813201FFA8AF31D
:104FDC00BDF80C3077459CD1591C023389B29BB279
:104FEC0049005B004FF400474752009AC7522E4BC2
:104FFC0056081F6800221423C4F80425C4F80C2595
:10500C00C4F80835C4F81425C4F81025C4F82005D4
:10501C00C4F82465C4F82825C4F82C25EB7907EBD3
:10502C00031C1B010121FE5C9CF8013003F01F03E3
:10503C0043EA4613C4F86035C4F80015C4F81021CF
:10504C00A160D4F81031002BFBD000234FF0FF32BD
:10505C00C4F81031C4F80035C4F8602501F004F927
:10506C0000F0C6FE286105B0BDE8F08FD4F86035BD
:10507C00002BBFF6B7AED4F86435002BBFF6B2AE3A
:10508C00D4F86835002BBFF6ADAED4F86C35002BD8
:10509C00BFF6A8AE25E700BFE8830B0000C00140B7
:1050AC00001002400020024024E60320001000E023
:1050BC0000ED00E0D4F86435002BBFF68DAED4F8CB
:1050CC006835002BBFF688AED4F86C35002BBFF6D4
:1050DC0083AE06E770470423022183E743888B42A3
:1050EC00F0B52DD9067AC2F30743C2F30724D5B223
:1050FC003EB1734374437543C3F30723C4F30724CE
:10510C002D0A90F806C0C768BCF1060F0CBF042628
:10511C0003264E43ACF1020CB919BCF1060F1DD895
:10512C00DFE80CF0041C08040F040400BC554B70A1
:10513C008D7005E0FE2B28BFFE23BB554D708C7087
:10514C00F0BDBB554C708D70037A120E13B9D2B2F0
:10515C00CA70F5E75A43C2F30722F9E7BB554C7006
:10516C00E6E7037A4A1CD2B2934270B51FD0013BDA
:10517C0013F0FF03C4680CD0FF291FBF110201F10B
:10518C00FF31B1FBF3F39BB204BF4FF6FF71B1FBE0
:10519C00F3F325468688291B89B28E4206D92978D5
:1051AC005943C1F3072105F8011BF3E7027270BDE7
:1051BC0008B500F0ADFD014B186008BD24E60320D6
:1051CC00F0B5457EBDF81440022D69D0032D00F0DA
:1051DC009980012D6CD10589D2432A4412B2002A40
:1051EC005DDBB0F90850954259DD0029BEBF5B1854
:1051FC001BB20021B0F90A00CD188542C4BF431A76
:10520C001BB2002B4BDDC1F3C400DFF820C102EB55
:10521C00C01211F00701DBB20CEB02001AD0C1F185
:10522C000805404EEDB2AB42775D3FBFA5EB030ED8
:10523C00FF2646FA0EF637401CF80260012C0CBF14
:10524C003E43BE43AB420CF8026028D308390B44F2
:10525C00DBB28030072B19D9012C4FF0FF3518BF6A
:10526C000025EDB200F180011A46083AD2B2072AA5
:10527C0001F8805C01F18001F7D8A3F10802C2F3B8
:10528C00C402013200EBC21003F007033BB1264A03
:10529C00D25C0378012C0CBF134393430370F0BD15
:1052AC004589D2432A44CD180189491B12B209B24F
:1052BC00002AF4DBB0F90A509542F0DD0029BEBF9C
:1052CC005B181BB20021B0F90870CE18BE42C4BFE7
:1052DC006B1A1BB2002BE2DDD010802510FB0511E0
:1052EC001248014402F0070001228240012CD2B284
:1052FC000B440CD18B42D2D011F8010B104301F8A6
:10530C00010CF7E7CD184189491B09B267E7D24375
:10531C00D2B28B42C3D011F8010B104001F8010C32
:10532C00F7E700BFB0E00320A8E00320B8E00320BB
:10533C00F0B5457EBDF81440022D34D0032D00F09D
:10534C009B80012D37D1D5180289521B12B200292E
:10535C00C0F29180B0F90A508D4240F38C80002A43
:10536C00BEBF9B181BB20022B0F90870D618BE4203
:10537C00C4BFAB1A1BB2002B7DDDC810802510FBFF
:10538C0005224548024401F0070001218140012C0F
:10539C00C9B2134475D19A426DD012F8010B08436F
:1053AC0002F8010CF7E70589C9432944D51842894D
:1053BC00521B09B212B200295DDBB0F908508D42C4
:1053CC0059DD002ABEBF9B181BB20022B0F90A009F
:1053DC00D5188542C4BF831A1BB2002B4BDDC2F318
:1053EC00C400DFF8B4C001EBC01112F00702DBB24D
:1053FC000CEB01001AD0C2F10805284EEDB2AB42FD
:10540C00775D3FBFA5EB030EFF2646FA0EF637403D
:10541C001CF80160012C0CBF3E43BE43AB420CF8A0
:10542C00016028D3083A1344DBB28030072B19D91A
:10543C00012C4FF0FF3518BF0025EDB200F18001B3
:10544C001A46083AD2B2072A01F8805C01F18001B1
:10545C00F7D8A3F10802C2F3C402013200EBC21068
:10546C0003F007033BB10E4AD25C0378012C0CBF4E
:10547C00134393430370F0BD4589C943294409B2D2
:10548C0065E7C943C9B29A42F5D012F8010B08403E
:10549C0002F8010CF7E700BFB8E00320B0E00320EE
:1054AC00A8E0032070470000F8B50D1E0646144610
:1054BC001F462DDB00F016FCA84229DD002C27DB53
:1054CC00304600F012FCA04222DD304600F008FC11
:1054DC0002281ED0032825D0012804D13389E243A9
:1054EC001A442C4615B2002C2246B8BFE21DD2102D
:1054FC00802112FB01550E49012204F007044B5781
:10550C0002FA04F464B297420CBF2343A3434B55F5
:10551C00F8BD318972890139E4434D1B14442DB215
:10552C0024B2E0E77389013B5B1B25461CB2DAE72A
:10553C00B8E0032010B524210446FEF7A8FD204650
:10554C0010BD000038B5402204460D46802100F005
:10555C00A7FA064B2360FF2384F8213063774FF6BC
:10556C00FF73E38384F82050204638BD04840B007D
:10557C0002484FF48062002102F0D8BAB8E0032050
:10558C0013B50B4C2178BFF35B8F11F001010BD1DC
:10559C0020460191FEF78AFD019928B1054800F0DB
:1055AC00DFFE2046FEF787FD024802B010BD00BFAB
:1055BC0028E603202CE6032007B590F8223043B1EF
:1055CC000191FFF7DDFF019903B05DF804EB00F0EA
:1055DC007BBF0B46817F407F012203B05DF804EB5B
:1055EC0002F0D6B838B590F91D30013304460D469B
:1055FC001DD090F92100012180B202F086F894F9B7
:10560C001F00002180B202F080F894F921000021E3
:10561C0080B202F07AF829462046FFF7CDFF94F9C4
:10562C0021000121BDE8384080B202F06EB802F0D2
:10563C002DF994F91B1001F053FC02F027F90368C3
:10564C0000219B68984702F021F9036829469B6862
:10565C00984702F01BF9BDE8384001F048BC000047
:10566C00F8B521210446FFF7BDFF00212046FFF7C6
:10567C00B9FF7F212046FFF7B5FF22212046FFF717
:10568C00B1FF00212046FFF7ADFF07212046FFF7B1
:10569C00A9FF94F91D30294F01332AD094F9210028
:1056AC00012180B202F031F894F91F00012180B27F
:1056BC0002F02BF894F92100002180B202F025F8B9
:1056CC00012000F08DFB4FF48065013D17F8011BA4
:1056DC002046ADB2FFF770FF002DF6D1012000F08F
:1056EC007FFB94F921000121BDE8F84080B202F063
:1056FC000CB8002502F0CAF894F91B1001F0F0FB6D
:10570C0002F0C4F8036840219B68984705F1100625
:10571C00B6B202F0BBF80368795D9B6898476B1CC6
:10572C009DB2AE42F5D102F0B1F801F0E0FBB6F556
:10573C00806F00D1F8BD3546DCE700BFB8E0032030
:10574C0038B590F91D300177013304460D46C27609
:10575C0000F0C98090F91F00012180B201F0C4FF54
:10576C0094F92100012180B201F0BEFF94F822309F
:10577C00002B00F0A68094F92100012180B201F0E9
:10578C00C4FFFFF7FDFE012100F008FEFFF7F8FE55
:10579C00102100F073FEFFF7F3FE002100F012FE63
:1057AC00FFF7EEFE00F0E6FD94F92000012180B237
:1057BC0001F09AFF94F92000012180B201F0A5FFBD
:1057CC00012001F0C7F894F92000002180B201F00B
:1057DC009CFF0A2001F0BEF894F92000012180B250
:1057EC0001F093FF2046AE21FFF7FCFE2046D521A9
:1057FC00FFF7F8FE20468021FFF7F4FE2046A82193
:10580C00FFF7F0FE20463F21FFF7ECFE2046D321A8
:10581C00FFF7E8FE20460021FFF7E4FE204640217A
:10582C00FFF7E0FE8D212046FFF7DCFE012D0CBFBB
:10583C00102114212046FFF7D5FE20462021FFF72A
:10584C00D1FE20460021FFF7CDFE2046A121FFF717
:10585C00C9FE2046C821FFF7C5FE2046DA21FFF716
:10586C00C1FE20461221FFF7BDFE81212046FFF725
:10587C00B9FE012D0CBF9F21CF212046FFF7B2FEB0
:10588C00D9212046FFF7AEFE012D0CBF2221F121BC
:10589C002046FFF7A7FE2046DB21FFF7A3FE20469C
:1058AC004021FFF79FFE2046A421FFF79BFE2046D8
:1058BC00A621FFF797FE2046AF21BDE83840FFF741
:1058CC0091BE94F91D00012180B201F00DFF94F9F5
:1058DC001E00012180B201F007FF94F82230002B4A
:1058EC003FF462AF47E701F0D1FF01F0EFFA5BE75D
:1058FC002DE9F04F85B01F46BDF93880BDF83C301E
:10590C00A8EB0209A7EB010AB9F1000FB8BFC9F166
:10591C000009BAF1000FB8BFCAF1000AD14583469D
:10592C000C46154604DD3A462C4647460D46904635
:10593C00BC4205DD2A464546904622463C46174663
:10594C003E1BB2B20092A8EB050282EAE271A1EB17
:10595C00E271C6F3C03202FA86F64545B4BF0122A5
:10596C004FF0FF32019176100292BC421CDCDBF846
:10597C0000200393D145D2F81080C7BF2946224698
:10598C002A4621465846C047019A039BB61AB1B223
:10599C0036B2002E05DA029A1544009A56182DB22A
:1059AC0036B2013424B2E0E705B0BDE8F08F2DE942
:1059BC00F347BDF82C800768BDF92890CDF800801E
:1059CC000446FF6916468A461D46B8472368CDF83B
:1059DC00008009F1FF323244DF6951462B462046E4
:1059EC0012B2B8472368CDF800809F6932464B4607
:1059FC0051462046B8476B1E03EB0A012368CDF8CD
:105A0C0028809D6932464B4609B22046AC4602B00E
:105A1C00BDE8F047604737B5013B13440468BDF857
:105A2C00185001951BB2009364690B46A04703B054
:105A3C0030BD37B5BDF818500468CDE90025013BE1
:105A4C000B4464691BB2A04703B030BD2DE9F3478A
:105A5C00BDF92890BDF82C80054692460C46CE1810
:105A6C00B4420BDA2B68CDF800809F6921464B4677
:105A7C00524628460134B84724B2F1E702B0BDE8DB
:105A8C00F08713B502680191B0F90E100091546AB9
:105A9C00B0F90C3000221146A04702B010BD70477F
:105AAC0030B54281C2814FF0FF320024054D426176
:105ABC000122446005600181818104610283827648
:105ACC0030BD00BF38890B002DE9F04F89B0CDE90E
:105ADC000323BDF94870BDF94C300593FA1DCDE98F
:105AEC00010148BF07F10E020024BDF850304FEA07
:105AFC00E20B25464FF0800905992AB291422ADD26
:105B0C00049A02EB040A039A2A444FF0000812B2DA
:105B1C000FFA88F087421FFA88F119DDC0101AF8C5
:105B2C0000C001F0070049FA00F01CEA000F0CD08D
:105B3C0002980144019800680069CDE906230646E5
:105B4C0009B20198B047DDE9062308F10108DFE747
:105B5C0001355C44D0E709B0BDE8F08F2DE9F04F7A
:105B6C002DED028B8DB007460491BDF860100591A8
:105B7C00BDF864100691B0F90C1004989DF86850AB
:105B8C00814252DDB7F90E1091424EDD062111FB18
:105B9C000504002C49DD02EBC504002C45DD03EBAC
:105BAC0083030B9393B2079308339BB208910024A1
:105BBC000993052C1CBF2C4B0B9A079E16BF1B1967
:105BCC0000239B5C0393049AABB20A9304FB05F38A
:105BDC0013FA82F31BB204EB020A08EE103AB04639
:105BEC000FFA85F90FFA8AFA039BDB072FD5012DE3
:105BFC003B681FD1D3F810B0059B32B251463846E2
:105C0C00D847039B5B0803930A9B01369844099B76
:105C1C00B6B2B3421FFA88F8E6D1089B013B0134B7
:105C2C0013F0FF0364B20893C3D10DB0BDEC028B2B
:105C3C00BDE8F08F059ACDE9009218EE101AD3F852
:105C4C0024B00FFA88F24B463846D847D9E7DDE93D
:105C5C0005239342D5D0012D3B6803D1D3F810B066
:105C6C00069BCAE7069AE6E734840B0030B50A298E
:105C7C0085B0044607D1027E638A03EBC2036382BC
:105C8C000023238221E00D291FD0037E0293C38AB7
:105C9C000193838A0093B0F912200B46B0F91010CF
:105CAC00FFF75CFF207E238A00EB400103EB4103EE
:105CBC00A17E1BB20246238239B1B4F90C106FF0ED
:105CCC00050505FB00118B42D6DC012005B030BD6B
:105CDC00012938BF0121017670478182C282704749
:105CEC00407E7047B0F90C007047B0F90E00704759
:105CFC0008B5024B1B689B68019308BD6802030042
:105D0C0008B5024B1B68DB68019308BD68020300F1
:105D1C0008B5024B1B681B68019308BD2C020300DD
:105D2C0008B5024B1B685B68019308BD2C0203008D
:105D3C0008B5024B1B689B68019308BD2C0203003D
:105D4C0008B5024B1B68DB68019308BD2C020300ED
:105D5C0008B5024B1B681B69019308BD2C0203009C
:105D6C0008B5024B1B685B69019308BD2C0203004C
:105D7C0008B5024B1B689B69019308BD2C020300FC
:105D8C0008B5024B1B68DB69019308BD2C020300AC
:105D9C0008B5024B1B681B6A019308BD2C0203005B
:105DAC0008B5024B1B685B6A019308BD2C0203000B
:105DBC0008B5024B1B681B6B019308BD2C0203003A
:105DCC0008B5024B1B685B69019308BD6C020300AC
:105DDC0008B5024B1B685B68019308BD18020300F1
:105DEC0008B5024B1B68DB68019308BD1802030061
:105DFC0008B5024B1B681B69019308BD1802030010
:105E0C0008B5024B1B685B69019308BD18020300BF
:105E1C0008B5024B1B68DB6D019308BD180203002B
:105E2C0008B5024B1B685B6C019308BD480203006C
:105E3C0008B5024B1B685B69019308BD6402030043
:105E4C0008B5024B1B681B6A019308BD6402030072
:105E5C0008B5024B1B689B6A019308BD64020300E2
:105E6C0008B5024B1B68DB68019308BD3C020300BC
:105E7C0008B5024B1B681B69019308BD3C0203006B
:105E8C0008B5024B1B685B69019308BD3C0203001B
:105E9C0008B5024B1B689B69019308BD3C020300CB
:105EAC0008B5024B1B68DB69019308BD3C0203007B
:105EBC0008B5024B1B681B6A019308BD3C0203002A
:105ECC0008B5024B1B689B6A019308BD3C0203009A
:105EDC0008B5024B1B681B6C019308BD3C02030008
:105EEC0008B5024B1B68DB68019308BD2802030050
:105EFC0008B5024B1B689B69019308BD280203007F
:105F0C0008B5024B1B68DB69019308BD280203002E
:105F1C0008B5024B1B681B6A019308BD28020300DD
:105F2C0008B5024B1B685B6A019308BD280203008D
:105F3C0008B5024B1B689B6A019308BD280203003D
:105F4C0008B5024B1B68DB6A019308BD28020300ED
:105F5C0008B5024B1B681B6B019308BD280203009C
:105F6C0008B5024B1B685B6B019308BD280203004C
:105F7C0008B5024B1B681B6C019308BD280203007B
:105F8C0008B5024B1B689B69019308BD38020300DE
:105F9C0008B5024B1B68DB69019308BD380203008E
:105FAC0008B5024B1B681B6A019308BD380203003D
:105FBC0008B5024B1B689B6A019308BD38020300AD
:105FCC0008B5024B1B681B6B019308BD380203001C
:105FDC0008B5024B1B689B6B019308BD380203008C
:105FEC0008B5024B1B681B68019308BD3002030007
:105FFC0008B5024B1B689B68019308BD3002030077
:10600C0008B5024B1B68DB68019308BD3002030026
:10601C0008B5024B1B681B69019308BD30020300D5
:10602C0008B5024B1B685B69019308BD3002030085
:10603C0008B5024B1B68DB69019308BD30020300F5
:10604C0008B5024B1B681B6A019308BD30020300A4
:10605C0008B5024B1B685B6A019308BD3002030054
:10606C0008B5024B1B681B6C019308BD3002030082
:10607C0008B5024B1B685B6C019308BD3002030032
:10608C0008B5024B1B681B68019308BD4C0203004A
:10609C0008B5024B1B685B68019308BD4C020300FA
:1060AC0008B5024B1B681B69019308BD4C02030029
:1060BC0008B5024B1B685B69019308BD4C020300D9
:1060CC0008B5024B1B689B69019308BD4C02030089
:1060DC0008B5024B1B68DB69019308BD4C02030039
:1060EC0008B5024B1B681B6A019308BD4C020300E8
:1060FC0008B5024B1B689B6A019308BD4C02030058
:10610C0008B5024B1B685B6B019308BD6002030072
:10611C0008B5024B1B681B6D019308BD60020300A0
:10612C0008B5024B1B685B68019308BD2002030095
:10613C0008B5024B1B685B69019308BD2002030084
:10614C0008B5034B1B68D3F88830019308BD0000D9
:10615C002002030008B5034B1B68D3F8943001935D
:10616C0008BD00002002030008B5024B1B685B68E9
:10617C00019308BD4002030008B5024B1B689B68E5
:10618C00019308BD4002030008B5024B1B68DB6895
:10619C00019308BD4002030008B5024B1B681B6944
:1061AC00019308BD4002030008B5024B1B685B69F4
:1061BC00019308BD4002030008B5024B1B689B69A4
:1061CC00019308BD4002030008B5024B1B68DB6954
:1061DC00019308BD4002030008B5024B1B681B6A03
:1061EC00019308BD4002030008B5024B1B689B6A73
:1061FC00019308BD4002030008B5024B1B681B6BE2
:10620C00019308BD4002030008B5024B1B685B6B91
:10621C00019308BD4002030008B5024B1B681B6CC0
:10622C00019308BD4002030008B5024B1B685B6C70
:10623C00019308BD4002030008B5024B1B689B6824
:10624C00019308BD4402030008B5024B1B68DB6BCD
:10625C00019308BD4402030008B5024B1B681B6880
:10626C00019308BD1C02030008B5024B1B685B6858
:10627C00019308BD1C02030008B5024B1B689B6808
:10628C00019308BD1C02030008B5024B1B685B6A36
:10629C00019308BD1C02030008B5024B1B68DB6AA6
:1062AC00019308BD1C02030008B5024B1B68DB6B95
:1062BC00019308BD1C02030008B5024B1B681B6C44
:1062CC00019308BD1C02030008B5024B1B685B6CF4
:1062DC00019308BD1C020300002240681146FFF721
:1062EC007BBF002240681146FFF78EBF406800223A
:1062FC00FFF782BF4068002281F00101FFF764BF05
:10630C00002340681A461946FFF756BF0023406821
:10631C001A461946FFF748BF002240681146FFF79E
:10632C003BBF002240681146FFF726BF40680022A1
:10633C000221FFF729BF002340681A46FFF714BF5C
:10634C00024B03225A60024A1A60704734E603205B
:10635C0070890B000021FFF78BBE0021FFF780BE78
:10636C0010B5044608462170FFF762FE00236360F7
:10637C00204610BD13B504460078FFF7EEFF58B960
:10638C00207801904FF6FF71FFF72AFE019802B0BA
:10639C00BDE81040FFF7DEBF02B010BD13B50446D8
:1063AC0000780191FFF7D9FF019948B92078019045
:1063BC00FFF71EFE019802B0BDE81040FFF7CABF00
:1063CC0002B010BD13B5044600780191FFF7C5FF6C
:1063DC00019948B920780190FFF712FE019802B09C
:1063EC00BDE81040FFF7B6BF02B010BD400830B595
:1063FC001860002418688842E5B206D90134082CCC
:10640C0002D040081860F5E70725024B5B5D13705E
:10641C0030BD00BFA4890B002DE9F04188B00023EA
:10642C000446007802930E461746FFF796FF054682
:10643C0000BB94F800800146142203A801F076FBFF
:10644C000B232A4603A94046ADF80C30FFF700FE9B
:10645C0004988DF8075002AB0DF1070207FB06F10B
:10646C00FFF7C4FF20789DF80710FFF7D1FD2078C7
:10647C00FFF770FF029808B0BDE8F08138B504460C
:10648C0000780D46FFF769FF0346D0B9616899B1F2
:10649C000C4A12F8010B854202D00133082BF8D1BB
:1064AC000133DBB20122D9402046FFF7B5FF20783B
:1064BC00BDE83840FFF74EBF20782946FFF7A8FD0E
:1064CC00F5E738BDA4890B0008B50078FFF7A8FDE7
:1064DC00C0B208BD054B02221A60054B054A9A60F2
:1064EC000020C3E90000FFF71BBE00BF48E60320F5
:1064FC003CE603200000FFFF10B5044601F05EFBF4
:10650C00013823182046834206D90278197800F8FE
:10651C00011B03F80129F6E710BD70B50C46911E5E
:10652C0022291DD8254630B9234430229D4210D251
:10653C0005F8012BFAE7B0FBF2F602FB1600C1B22C
:10654C00092894BF30315731C9B205F8011B3046C8
:10655C00E9E7002320462B70FFF7CEFF204670BDE5
:10656C000020FCE738B5031E0C4615460EDAB3F1D5
:10657C00004F4FF02D0214BF5842184601230A70E9
:10658C002A461944FFF7C9FF204638BD0123F9E715
:10659C0010B504460068FFF767FE204610BD10B525
:1065AC000446006808B1FFF75FFE0023C4E901331D
:1065BC00236010BD38B504460D4600680131FFF765
:1065CC005BFE10B1C4E90005012038BD10B50368AD
:1065DC00044623B143688B4201D3012010BD2046F1
:1065EC00FFF7E8FF0028F9D0A368002BF5D122684B
:1065FC001370F2E737B50D46114601920446FFF7CA
:10660C00E5FF019A28B92046FFF7C9FF204603B0E1
:10661C0030BDA2602946206801F07AFA2268A3688E
:10662C000021D154F2E7002313B5C0E9003304462E
:10663C008360037341B10846019101F0BFFA0199DF
:10664C0002462046FFF7D6FF204602B010BD884216
:10665C0010B5044605D00B682BB18A681946FFF7B4
:10666C00C9FF204610BDFFF79AFFFAE710B50023CB
:10667C000446C0E9003383600373FFF7E8FF20464C
:10668C0010BD13B5044659B10846019101F096FAB4
:10669C00019902462046FFF7ADFF204602B010BD1F
:1066AC00FFF77DFFF9E710B504468AB00023C4E973
:1066BC000033A3602373084601A9FFF753FF01A918
:1066CC002046FFF7DEFF20460AB010BD70B5054628
:1066DC000E4609B9002070BD6AB184681444214685
:1066EC00FFF774FF0028F5D02868AB6831461844D2
:1066FC0001F05CFAAC600120EDE713B504460846E6
:10670C0051B1019101F05AFA01990246204602B0AA
:10671C00BDE81040FFF7DABF02B010BD07B500238B
:10672C008DF80410012201A98DF80530FFF7CEFF7A
:10673C0003B05DF804FB10B58A6809680446FFF7DE
:10674C00C5FF10B92046FFF72AFF204610BD13B530
:10675C00044629B92046FFF722FF204602B010BD9F
:10676C000846019101F02AFA019902462046FFF7EA
:10677C00ADFF0028EED0F0E710B58368044613B1E6
:10678C00032201469847204610BD00000248002312
:10679C000360FFF745BB00BF4CE60320F8B5064687
:1067AC000D468F180024BD420CD0336815F8011B20
:1067BC009B6830469847031E01DB1C44F3E7002C12
:1067CC0008BF1C462046F8BD13B50446084659B10F
:1067DC00019101F0F3F923680199DB680246204628
:1067EC0002B0BDE81040184702B010BD08B5FFF765
:1067FC00EBFF08BD03689B68184738B50D210546AB
:10680C00FFF7F8FF0A2104462846FFF7F3FF204460
:10681C0038BD38B50546FFF7D7FF04462846FFF7C5
:10682C00ECFF204438BD30B58BB00023012A8DF825
:10683C00243098BF0A2209AC0D46B1FBF2F101FBE2
:10684C00125303F0FF03092B94BF30333733DBB201
:10685C00AA4204F8013DEFD92146FFF7B5FF0BB072
:10686C0030BD2DE9F04186B000AF05460E46381D0F
:10687C00142114463B60FFF707FD13280ED8391D71
:10688C002846FFF7A1FF04461EB12846FFF7B5FFC7
:10689C00044420461837BD46BDE8F08100F10803DA
:1068AC0023F00703E846ADEB030D2246411C3B6881
:1068BC006846FFF7E9FC69462846FFF785FF044662
:1068CC00C546E1E710B50446FFF79AFAE060236885
:1068DC0020465B699847002808DAFFF791FAE368CD
:1068EC00C01AA3689842F2D34FF0FF3010BD0000DD
:1068FC0038B50D4607490446FFF795FE2846FFF7C5
:10690C00E1FF002804DBC1B22046FFF707FFF5E7E3
:10691C00204638BDF2800B00014B024A1A607047CA
:10692C0050E60320B4890B00024B1A68024B1A6024
:10693C00704700BFB8E4032054E603208A4210B528
:10694C0007D0441A0298C01A4443501A94FBF0F032
:10695C00184410BD0021FFF7EBBB0000014B0022D7
:10696C009A60704758E60320014B1860704700BFCF
:10697C00BCE4032008B50B4B43B100F081F903686C
:10698C001B699847002801DDAFF30080064B43B12B
:10699C0000F03CFF03681B699847002801DDAFF34A
:1069AC00008008BD000000000000000008B5FFF7E3
:1069BC00E1FFFFF725FA014B186008BD40E7032003
:1069CC000548064A064908B5121A01F0A1F8054B0C
:1069DC00054A1A6008BD00BF00F4032004F403202C
:1069EC00448D0B0000F403201E1C279A07B50023CE
:1069FC0000931A466FF07701FFF7ACFB03B05DF81C
:106A0C0004FB000007B543880A2B08D0502B0BD190
:106A1C00094B1B684BB103B05DF804EB1847FFF74B
:106A2C00E5FF03B05DF804FB002300931A466FF0FA
:106A3C007701FFF78FFBF4E76CE6032010B51248E3
:106A4C000021FFF741FC114B1A68114B9A42114B74
:106A5C000CBF012200221A7001D0FFF7B1FFFFF723
:106A6C00B7F9044601F06AF80B4B13B12046AFF3AB
:106A7C00008000210848FFF7E7FBBDE810400748FD
:106A8C000021FFF75DBB00BF75690B0000F403200C
:106A9C001E1C279A68E6032000000000116A0B00F8
:106AAC00704710B518210446FDF7F1FA204610BDC9
:106ABC00F0B5037D062B8DB00E4600F104074FF0A8
:106ACC00000412D000F1080515F8011D0A22304609
:106ADC00FFF7A9FEAF42044419D0002CF4D02E21AC
:106AEC003046FFF787FE0444EEE72F236A4639460B
:106AFC000A208DF80040FFF79BF9684601F05EF81C
:106B0C0033680246DB68694630469847044620469F
:106B1C000DB0F0BD10B5054B0446112240F8043BF6
:106B2C00002101F003F8204610BD00BFDC890B00EA
:106B3C000346074A10B543F8042B01F1100251F833
:106B4C00044B43F8044B9142F9D10A781A7010BDEA
:106B5C00DC890B00037D042B04D14068003818BF7E
:106B6C0001207047062B07D143683BB983682BB9CA
:106B7C00C3681BB90069F1E700207047012070471A
:106B8C0010B59DF8084044EA032343EA024242EA66
:106B9C00016104234160037510BD000007B5064B6D
:106BAC000360CB7800938B784A780978FFF7E8FF7D
:106BBC0003B05DF804FB00BFDC890B004174704727
:106BCC007047704708B50021007CFFF779FA40EA5E
:106BDC00E07008BD08B50121007CFFF771FA40EAAE
:106BEC00E07008BD08B5007CFFF762FA20EAE0709F
:106BFC0008BD08B5007CFFF753FA20EAE07008BD29
:106C0C0013B50446007C0191FFF752FA0028019954
:106C1C0001DC607C20B1207CFFF75AFA20EAE0709E
:106C2C0002B010BD007CFFF75BBA10B5142104460E
:106C3C00FDF72DFA204610BD10B54FF47A730446BB
:106C4C0008460021C4E90113044B2360012320747E
:106C5C0063741146FFF714FA204610BDF0890B003F
:106C6C00007C0022FFF714BA007CFFF741BA10B584
:106C7C0014220446002100F059FF204610BD0000EC
:106C8C0010B50F4C88B003A8FFF7F1FF2178BFF3C4
:106C9C005B8F11F001010FD120460191FDF706FA2F
:106CAC00019948B103AA0748FFF7C6FF2046FDF734
:106CBC0002FA054800F026FF024808B010BD00BFDC
:106CCC0070E6032074E60320CD6B0B00826810B5D0
:106CDC000AB900F001FEBDE81040C3681847000077
:106CEC00F8B5104F57F8204006460D4634B12046F3
:106CFC00FFF742FD10212046FDF7C9F91020FDF7E2
:106D0C00C2F9044650B100238360AB6833B1022250
:106D1C0029469847EB68E360AB68A36047F82640C8
:106D2C002046F8BD88E60320F0B587B005460391F0
:106D3C0017461E46FFF724F803992846FFF7D0FFA5
:106D4C000446E8B100218E424FF00403ADF8151053
:106D5C008DF817108DF81430A2BF05A99DF83030AE
:106D6C008DF81630009102460749A8BF8DF81560C2
:106D7C003B462846FEF7FCFF10B1002007B0F0BDE3
:106D8C00201E18BF0120F9E7D96C0B00FFF708B8DB
:106D9C00FEF7FEBF70474174704708B5007CFFF7E3
:106DAC008FF820EAE07008BD08B5007CFFF760F8AA
:106DBC0020EAE07008BD08B5007CFFF769F840EAEE
:106DCC00E07008BD08B5007CFFF75AF840EAE070A7
:106DDC0008BD007CFFF764B837B5457C04462DB17F
:106DEC00207C03B0BDE83040FFF73AB8007C01913D
:106DFC00FFF766F800280199F2DC284603B030BD95
:106E0C0010B514210446FDF742F9204610BD0000D0
:106E1C0010B54FF47A730446084611460022C4E9B3
:106E2C000123044B2360012320746374FFF750F893
:106E3C00204610BD208A0B007047F8B50646154653
:106E4C000C468F18BC4206D0336814F8011B9B68A3
:106E5C0030469847F6E72846F8BD007C0022FFF73D
:106E6C0057B8007C0021FFF75BB8007C0021FFF7CE
:106E7C005FB8007C0021FFF763B8007C0021FFF7AE
:106E8C0067B810B514210446FDF701F9204610BD72
:106E9C0038B5044615464FF47A730022C4E9012331
:106EAC00094B2174084623602946FFF761F8BF306F
:106EBC0008D16B69DB0705D56868FFF7D5F9E86879
:106ECC00FFF7D2F9204638BD508A0B000023007C16
:106EDC001A461946FFF704B8007C0022FFF708B8E1
:106EEC00C9B2FFF7F9BF007C0022FFF709B80121F6
:106EFC00FFF7F9BF13B503688DF80710DC6B01229F
:106F0C004FF0FF330DF10701A04702B010BD10B4D4
:106F1C000368DC6B4FF0FF33A4465DF8044B60470D
:106F2C0013B5134602688DF80710D46B0DF10701E9
:106F3C000122A04702B010BD10B54369B3F88620FA
:106F4C00B3F884309A42044608D06369B3F88420BD
:106F5C00511CA3F884101344187910BD03681B69E5
:106F6C0098470028F1D14FF0FF30F6E7704743699E
:106F7C001868C043C00F704770470000064B994219
:106F8C0010B500F10C0405D0084600F0A9FC00284F
:106F9C0008BF0024204610BDAC890B0010B5AC21F5
:106FAC000446FDF774F8204610BDAC21FDF76FB810
:106FBC002DE9F0414FF0000886B01C46C0F8048063
:106FCC0005460E4617464146102202A800F0AEFDBB
:106FDC00631C09D04FF47A73B4FBF3F203FB124435
:106FEC00CDE902285C43049468691023009300687F
:106FFC0002AB41F2050240F6FF71FEF7C1FF00281B
:10700C0007DAFFF751F903686B60002006B0BDE8A2
:10701C00F0816869002300683A463146FEF7D0FFDC
:10702C00031EEEDB1846F1E730B587B0044601AD20
:10703C006846FFF7B3FD0FCD04340FC42B682370E3
:10704C0007B030BD70B54D69054B04468C3544F81E
:10705C00043B06460FCD0FC42B682370304670BD21
:10706C00DC890B002DE9F0439846036893B00D467C
:10707C000024DB6A06461746984728466B4622468C
:10708C0021460094FEF73CFE0546002863D1009B88
:10709C00002B4BD05B69002B48D006A8FFF73AFDBC
:1070AC00009B5C696378022B04D1211D06A8FFF7B5
:1070BC00BBFF26E00A2B24D11122294601A800F09F
:1070CC0035FDA368002B38D004F108030DF1040C36
:1070DC00183418685968624603C20833A3429446B0
:1070EC00F7D1062301A90CA88DF81430FFF720FD69
:1070FC000DF1340CBCE80F0007AC0FC4DCF8003009
:10710C00237006A8FFF726FD80B1336807ADD3F8CE
:10711C002090124B0C930FCD0DAC0FC42B68237029
:10712C003A4643460CA93046C84705460098FEF738
:10713C00DFFD284613B0BDE8F083E368002BC3D114
:10714C004FF6FF70D4F81090FEF77AFE8145BBD154
:10715C0004F11401AAE72546E8E700BFDC890B001F
:10716C0038B543691A68002A054610DAB3F8862048
:10717C00B3F884309A420AD103681B6998470446D5
:10718C0028B92B682846DB6A9847204638BD012071
:10719C00FCE710B54369B3F88620B3F884309A4203
:1071AC00044605D06369B3F884201344187910BDE4
:1071BC0003681B6998470028F4D14FF0FF30F6E7BD
:1071CC00F8B543691746B3F88620B3F884309A4271
:1071DC0005460E4616D06969B1F88430B1F8864080
:1071EC00E41ABC4228BF3C460433224619443046BC
:1071FC0000F08EFC6A69B2F884302344A2F8843023
:10720C002046F8BD03681B6998470028E3D14FF06E
:10721C00FF34F5E742690023A2F884304269A2F8F2
:10722C00863070472DE9F0411F4603680C46DB6A37
:10723C008AB0054616469847237DD5F81480042B52
:10724C000CBF02200A2006220121FEF7C1FEC8F85D
:10725C0000006B691B68002B08DA2B682846DB6A78
:10726C000024984720460AB0BDE8F0812846FFF775
:10727C00D1FFB7B1002303A9F8B20393ADF81030D6
:10728C00FEF79EFD0028E8D168690623009300688C
:10729C0003AB41F20B0240F6FF71FEF771FE0028C2
:1072AC00DBD11C22002103A800F040FC237D042B21
:1072BC001DD14FF407733046ADF80C30FEF7C8FD06
:1072CC00ADF80E006068FEF7BBFD04906B691C22E4
:1072DC00186803A9FEF764FE0028BED104340FCC55
:1072EC006D698C350FC523682B700124BAE740F605
:1072FC001C233046ADF80C30FEF7AAFD05AEADF8F8
:10730C000E00231D04F1140718685968324603C295
:10731C000833BB421646F7D1D8E7000030B54269B6
:10732C00B2F886308BB004462BB1B2F884209A4266
:10733C0001D1FFF76FFF61690868002818DBB1F80D
:10734C0086507F2D14D804310823C5F180022944BE
:10735C00FEF72EFE002813DD6369B3F886200AB908
:10736C00A3F884206369B3F886201044A3F8860040
:10737C006369B3F88600B3F88430C01A0BB030BD23
:10738C00FEF792FF03680B2BF2D0FEF78DFF03681C
:10739C000B2BEDD020230025CDE90235FEF784FF21
:1073AC0003680193084B0949009302AA2B4632202B
:1073BC00FEF7AEFE63691868FEF7EAFD63694FF0ED
:1073CC00FF321A60D4E700BF778A0B00708A0B007B
:1073DC0010B5436904461868002801DBFEF7D8FD98
:1073EC0063694FF0FF321A606069112200218C3002
:1073FC0000F09CFB2046BDE81040FFF70BBF10B51A
:10740C00002304460160C0F884308830FFF782FB0B
:10741C00204610BD73B500234FF47A72C0E90132D7
:10742C000E4A0361026043610446AC200191FCF7F3
:10743C002AFE051E05F10C0608D00123C5E901330F
:10744C00074B01992B603046FFF7D9FF2046C4E962
:10745C000565FFF7DFFE02B070BD00BFAC8A0B0004
:10746C00908A0B0010B54FF0FF310446FFF7D2FFA6
:10747C00204610BD10B504460068002801DBFEF75D
:10748C0087FD204610BD0C30FFF7F4BF002240688A
:10749C001146FEF781BE002240681146FEF79CBEE5
:1074AC00002240681146FEF7AFBE40680022FEF78E
:1074BC00A3BE4068002281F00101FEF785BE0023C7
:1074CC0040681A461946FEF777BE002340681A46F4
:1074DC001946FEF769BE002240681146FEF74CBE05
:1074EC00406800220221FEF74FBE002340681A4676
:1074FC00FEF73ABE024B04225A60024A1A607047E9
:10750C0018E70320F88A0B00002340681A46FEF7A0
:10751C002BBE406800220221FEF736BE00224068D6
:10752C001146FEF729BE002240681146FEF734BE14
:10753C00002340681A461946FEF736BE0023406801
:10754C001A461946FEF738BE40680021FEF764BEA5
:10755C0040680021FEF768BE4068002281F00101FE
:10756C00FEF732BE40680022FEF746BE002240689D
:10757C001146FEF749BE002240681146FEF72CBEAC
:10758C002DE9F04395B014460D460746FFF7C2FAB5
:10759C0000211C220DA8009100F0C8FA40230C9386
:1075AC0020466B460CAA0021FEF7AAFB04460028D5
:1075BC004BD1024601216868FEF7EEFD02218046A0
:1075CC0022466868FEF7E8FD009E81462146002EA3
:1075DC003BD0002939D17368022B03D00A2B11D070
:1075EC00F669F4E7B8F1000FFAD0716906A8043116
:1075FC0007ADFFF7D3FA0FCD3C1D0FC42B682370DA
:10760C004146EDE7B9F1000FEAD07469102201A8E8
:10761C0000F08CFA06238DF8143001AD04F1080348
:10762C001834186859682A4603C20833A342154611
:10763C00F7D101A906A807ADFFF77AFA0FCD3C1DCB
:10764C000FC42B6823704946CAE70098FEF750FB1D
:10765C00384615B0BDE8F083024B034A1A6000228D
:10766C005A60704720E70320348B0B00232813B596
:10767C0002D9002002B010BDA0F10B03022B1AD8C6
:10768C00174C2178BFF35B8F11F001010BD1204611
:10769C000191FCF70BFD019928B11248FEF760FE31
:1076AC002046FCF708FD0F4B1878FEF7C9FC0028A4
:1076BC00DFD10120DEE7012809D800F0E7F800212E
:1076CC00007CFEF74DFC80F00100C0B2D2E7093817
:1076DC000128EED800F09AF8007CFEF7E9FBF2E7FF
:1076EC0028E603202CE60320232838B504460D4653
:1076FC000AD8FF2908D0FFF7B9FF28B12946204640
:10770C00BDE83840FEF714BB38BD38B504460D460D
:10771C00FEF716FBFF2810D0062804D84D2323FAB9
:10772C0000F0C30709D42046FFF7A0FF28B1294673
:10773C002046BDE83840FEF70BBB38BD10B50446FB
:10774C00FEF7FEFA031FDBB2012B08D92046FFF728
:10775C008DFF20B12046BDE81040FEF701BB002094
:10776C0010BD0D2810B504469CBF0E34A4B22046A3
:10777C00FFF77CFF50B103212046FEF7D1FA032816
:10778C0004D12046BDE81040FEF712BB002010BD0E
:10779C002DE9F04190461F46072406460D46C4F1DC
:1077AC000701B8F1000F12D147FA01F101F0010104
:1077BC003046FFF7AAFF01212846FFF7A6FF00215C
:1077CC002846FFF7A2FF013CE9D2BDE8F08147FA59
:1077DC0004F1EBE77047000038B5044614252A463F
:1077EC00002100F0A3F92580402507492581284672
:1077FC00258200F06FF804496060284600F06AF8B2
:10780C00E060204638BD00BF688B0B0030B50E4DD4
:10781C002978BFF35B8F11F0010487B011D1284692
:10782C00FCF744FC68B101A8FFF7D6FF01AA21467A
:10783C000648FFF7EDFA2846FCF73DFC044800F03B
:10784C0061F9024807B030BD28E703202CE703207C
:10785C00E1770B007047000038B50A4B0360012339
:10786C00044643610849202000F034F8202560606C
:10787C000549A560284600F02DF8C4E9030520460B
:10788C0038BD00BF18000100688B0B0030B50E4DE1
:10789C002978BFF35B8F11F0010487B011D1284612
:1078AC00FCF704FC68B16846FFF7D6FF6A46214630
:1078BC000648FFF7EDFA2846FCF7FDFB044800F0FC
:1078CC0021F9024807B030BD44E7032048E7032004
:1078DC0061780B00FCF7D9BB08B5FEF7DDFC0000A6
:1078EC00014900F0F9B800BF848B0B007FB5002470
:1078FC001023CDE90234036815469E6912686B4665
:10790C00CDE90044B0479DF8043003F00603062B84
:10791C0003BF009B2B600120204604B070BD009873
:10792C00904214BF012006207047000010B5034B95
:10793C000360044600F0CDF8204610BDC48B0B004C
:10794C0010B50446FFF7F2FF20460821FCF79FFB19
:10795C00204610BD2DE9F0411F46DDE90834DDF865
:10796C00188098450646154607D1079900F0B4F8DB
:10797C0018B165710020BDE8F0813946304600F041
:10798C00ABF80028F6D00123C4F800802571A37150
:10799C00F0E738B515461C4600F09EF820B10823D8
:1079AC00E36006232560237138BD73B505460C468C
:1079BC0001921E4600F090F850B9032E08D82368A7
:1079CC00019A5B692946204602B0BDE87040184711
:1079DC0002B070BD10B5034B03600446FFF7A6FF61
:1079EC00204610BD248C0B0010B50446FFF7F2FFA7
:1079FC0020460C21FCF74BFB204610BDF7B5089F29
:107A0C00974205460E4614460AD0A86802680897A5
:107A1C00156A31462246AC4603B0BDE8F0406047DB
:107A2C001946019300F058F8019B0028EDD0062070
:107A3C0003B0F0BD2DE9F14F0D461946DDE90A4BB7
:107A4C00DDE90CA681461746984600F045F890B142
:107A5C00002D3460377109DB61198A450CBF062192
:107A6C000121B171002001B0BDE8F08F0235F9D1D0
:107A7C000123B371F6E7544506D15946484600F048
:107A8C002BF808B17771EDE7D9F808000368CDE958
:107A9C000CA6CDE90A4BDC693A4643462946A44676
:107AAC0001B0BDE8F04F60472DE9F04107460C46A8
:107ABC0015461E46FFF76DFF48B9B86803689F6905
:107ACC002A4633462146BC46BDE8F0416047BDE836
:107ADC00F081704700207047814208B50ED0406895
:107AEC0003782A2B0CD049680B782A2B08BF01315C
:107AFC0000F052F8B0FA80F0400908BD0120FCE714
:107B0C000020FAE7002301461A46184600F05EB83A
:107B1C000A44914200F1FF3300D1704710B511F8BF
:107B2C00014B03F8014F9142F9D110BD02440346B9
:107B3C00934200D1704703F8011BF9E738B5104B9D
:107B4C001D68AB6B0446B3B91820FEF785FB0246E3
:107B5C00A86320B90B4B0C484221FEF7ADFB0B4937
:107B6C000B4BC0E900130B4B83600B23838100216B
:107B7C000120C2E90401AB6B00221C615A6138BDC3
:107B8C00BCE403205D8C0B00748C0B000E33CDAB6E
:107B9C0034126DE6ECDE050010F8012B11F8013BF8
:107BAC00012A28BF9A42F7D0D01A7047034611F821
:107BBC00012B03F8012B002AF9D17047034613F867
:107BCC00012B002AFBD1181A013870472DE9F84314
:107BDC00DFF8B8800646D8F800001F460D469146DF
:107BEC0000F056F8254B1C6834B9254C1C60254B0D
:107BFC0013B11B68C4F8883063681F2B07DDD8F8F5
:107C0C00000000F047F84FF0FF30BDE8F8834EB3AA
:107C1C00D4F8880088B91C4B23B9D8F8000000F0C0
:107C2C0038F8F0E74FF48470FEF716FB0028F4D018
:107C3C000023C0E94033C4F88800636840F82390FF
:107C4C0001229A4000EB8301D0F800311343C0F8B5
:107C5C000031022EC1F8807002BFD0F804311343FA
:107C6C00C0F804316368D8F800005A1C0233626013
:107C7C0044F8235000F00EF80020C6E7E8E7032094
:107C8C005CE703200000000065620B0020E5032088
:107C9C0070477047704700001D400B0059400B00A7
:107CAC0081400B0085400B000000000043616C6CB0
:107CBC00206F6E2070757265207669727475616CB8
:107CCC0000417373657274696F6E4661696C75728D
:107CDC0065202A705F70696E203C20283332202B7F
:107CEC0020313629004E6F204368616E6765202D68
:107CFC002043616E63656C6C696E6720434D440A6A
:107D0C00007B226F6E223A747275652C227361743B
:107D1C00223A002C22627269223A002C2268756584
:107D2C00223A007B226F6E223A66616C73657D008D
:107D3C0053656E64696E6720436F6D6D616E642070
:107D4C00746F2048756500505554202F6170692F51
:107D5C00002F6C69676874732F002F7374617465DE
:107D6C0020485454502F312E3100486F73743A20F0
:107D7C0000436F6E74656E742D4C656E6774683A53
:107D8C002000436F6E74656E742D547970653A20C3
:107D9C00746578742F706C61696E3B636861727383
:107DAC0065743D5554462D380046726F6D204875EC
:107DBC0065005377697463684F4E202569200A006B
:107DCC003C3F786D6C2076657273696F6E3D223125
:107DDC002E302220656E636F64696E673D22757468
:107DEC00662D38223F3E3C733A456E76656C6F705B
:107DFC006520786D6C6E733A733D22687474703ABA
:107E0C002F2F736368656D61732E786D6C736F6162
:107E1C00702E6F72672F736F61702F656E76656C45
:107E2C006F70652F2220733A656E636F64696E679D
:107E3C005374796C653D22687474703A2F2F736398
:107E4C0068656D61732E786D6C736F61702E6F72D7
:107E5C00672F736F61702F656E636F64696E672F28
:107E6C00223E3C733A426F64793E3C753A536574DA
:107E7C0042696E617279537461746520786D6C6EB1
:107E8C00733A753D2275726E3A42656C6B696E3A47
:107E9C00736572766963653A626173696365766569
:107EAC006E743A31223E3C42696E61727953746150
:107EBC0074653E313C2F42696E6172795374617402
:107ECC00653E3C2F753A53657442696E6172795305
:107EDC00746174653E3C2F733A426F64793E3C2F5B
:107EEC00733A456E76656C6F70653E00504F535417
:107EFC00202F75706E702F636F6E74726F6C2F62A3
:107F0C00617369636576656E743120485454502FE3
:107F1C00312E3100436F6E74656E742D547970651B
:107F2C003A20746578742F786D6C3B2063686172AD
:107F3C007365743D7574662D3800534F4150414341
:107F4C0054494F4E3A202275726E3A42656C6B69F9
:107F5C006E3A736572766963653A626173696365DB
:107F6C0076656E743A312353657442696E61727929
:107F7C0053746174652200436F6E6E656374696F30
:107F8C006E3A206B6565702D616C69766500737750
:107F9C00697463684F4646202569200A003C3F7887
:107FAC006D6C2076657273696F6E3D22312E3022B6
:107FBC0020656E636F64696E673D227574662D383B
:107FCC00223F3E3C733A456E76656C6F7065207847
:107FDC006D6C6E733A733D22687474703A2F2F7304
:107FEC006368656D61732E786D6C736F61702E6F45
:107FFC0072672F736F61702F656E76656C6F70652D
:10800C002F2220733A656E636F64696E67537479BF
:10801C006C653D22687474703A2F2F736368656DBC
:10802C0061732E786D6C736F61702E6F72672F7326
:10803C006F61702F656E636F64696E672F223E3CB3
:10804C00733A426F64793E3C753A53657442696E7B
:10805C00617279537461746520786D6C6E733A75C6
:10806C003D2275726E3A42656C6B696E3A7365723D
:10807C00766963653A62617369636576656E743AB5
:10808C0031223E3C42696E61727953746174653E73
:10809C00303C2F42696E61727953746174653E3C59
:1080AC002F753A53657442696E61727953746174B9
:1080BC00653E3C2F733A426F64793E3C2F733A45D0
:1080CC006E76656C6F70653E004C6967687420490C
:1080DC0074205570256300496F544E6574776F7228
:1080EC006B002E000A0A0025692025690A00256903
:1080FC002C25690A0062756C62206F6E0031393272
:10810C002E3136382E312E3330003139322E313675
:10811C00382E312E3331003139322E3136382E3162
:10812C002E3332003139322E3136382E312E333354
:10813C00003139322E3136382E312E3334004D5138
:10814C006C5A7A69524F30576169354D734D486C92
:10815C006C38784155415171773835517272387499
:10816C004D3337463354003139322E3136382E31B7
:10817C002E3500000FFFFFFFFFFFFFFFFFFFFFF09B
:10818C0000000FFFFFFFFFFFFFFFFFFFFFF00000EE
:10819C000FFFFFFFFFFFFFFFFFFFFFF000000FFFD0
:1081AC00FFFFFFFFFFFFFFFFFFF000000FFFFFFFD0
:1081BC00FFFFFFFFFFFFFFF000000FFFFFFFFFFFC0
:1081CC00FFFFFFFFFFF000000FFFFFFFFFFFFFFFB0
:1081DC00FFFFFFF000000FFFFFFFFFFFFFFFFFFFA0
:1081EC00FFF000000FFFFFFFFFFC03FFFFFFFFF09E
:1081FC0000000FFFFFFFFFF070FFFFFFFFF000001C
:10820C000FFFFFFFFFE3FE7FFFFFFFF000000FFFFC
:10821C00FFFFFFCFFF3FFFFFFFF000000FFFFFFF4F
:10822C00FF9FFF9FFFFFFFF000000FFFFFFFFF3FCF
:10823C00FFCFFFFFFFF000000FFFFFFFFF3FFFCF5F
:10824C00FFFFFFF000000FFFFFFFFF7FFFE7FFFFC7
:10825C00FFF000000FFFFFFFFE7FDFE7FFFFFFF0E7
:10826C0000000FFFFFFFFE7FDFE7FFFFFFF00000C6
:10827C000FFFFFFFFE7F9FE7FFFFFFF000000FFFE8
:10828C00FFFFFE7F17E7FFFFFFF000000FFFFFFF70
:10829C00FE7E07E7FFFFFFF000000FFFFFFFFF7FF1
:1082AC008FE7FFFFFFF000000FFFFFFFFF3F9FCFA7
:1082BC00FFFFFFF000000FFFFFFFFF3FBFCFFFFFEF
:1082CC00FFF000000FFFFFFFFF9FBF9FFFFFFFF0BE
:1082DC0000000FFFFFFFFFDFFF9FFFFFFFF000001D
:1082EC000FFFFFFFFFCFFF3FFFFFFFF000000FFF6F
:1082FC00FFFFFFE7FF7FFFFFFFF000000FFFFFFF17
:10830C00FFE7FE7FFFFFFFF000000FFFFFFFFFF70F
:10831C00FE7FFFFFFFF000000FFFFFFFFFF7FEFFE8
:10832C00FFFFFFF000000FFFFFFFFFF7FEFFFFFF57
:10833C00FFF000000FFFFFFFFFF7FEFFFFFFFFF056
:10834C0000000FFFFFFFFFFFFFFFFFFFFFF000002C
:10835C000FFFFFFFFFFE03FFFFFFFFF000000FFF0B
:10836C00FFFFFFFC03FFFFFFFFF000000FFFFFFF0D
:10837C00FFFFFFFFFFFFFFF000000FFFFFFFFFFFFE
:10838C00FFFFFFFFFFF000000FFFFFFFFFFC03FFED
:10839C00FFFFFFF000000FFFFFFFFFFC03FFFFFFDD
:1083AC00FFF000000FFFFFFFFFFFFFFFFFFFFFF0DD
:1083BC0000000FFFFFFFFFFFFFFFFFFFFFF00000BC
:1083CC000FFFFFFFFFFFFFFFFFFFFFF000000FFF9E
:1083DC00FFFFFFFFFFFFFFFFFFF000002C0100007D
:1083EC0018000000F40100002C01000050000000F7
:1083FC000000000000000000B1540B0041550B00C0
:10840C00795C0B00A9670B00B5540B00FD580B00F1
:10841C003D530B00CD510B00BB590B00595A0B00AF
:10842C008F5A0B00AB5A0B0000000000003E5B4F54
:10843C005B3E3E6B4F6B3E1C3E7C3E1C183C7E3CB8
:10844C00181C577D571C1C5E7F5E1C00183C1800C6
:10845C00FFE7C3E7FF0018241800FFE7DBE7FF3056
:10846C00483A060E2629792926407F050507407FC4
:10847C0005253F5A3CE73C5A7F3E1C1C08081C1C37
:10848C003E7F14227F22145F5F005F5F06097F012D
:10849C007F006689956A606060606094A2FFA29418
:1084AC0008047E040810207E201008082A1C0808E6
:1084BC001C2A08081E101010100C1E0C1E0C303834
:1084CC003E3830060E3E0E06000000000000005F35
:1084DC0000000007000700147F147F14242A7F2A51
:1084EC001223130864623649562050000807030013
:1084FC00001C2241000041221C002A1C7F1C2A085F
:10850C00083E0808008070300008080808080000C1
:10851C0060600020100804023E5149453E00427F35
:10852C00400072494949462141494D331814127F84
:10853C001027454545393C4A494931412111090724
:10854C003649494936464949291E000014000000A5
:10855C004034000000081422411414141414004177
:10856C0022140802015909063E415D594E7C121134
:10857C00127C7F494949363E414141227F4141416C
:10858C003E7F494949417F090909013E41415173E7
:10859C007F0808087F00417F41002040413F017F58
:1085AC00081422417F404040407F021C027F7F0420
:1085BC0008107F3E4141413E7F090909063E415169
:1085CC00215E7F09192946264949493203017F0159
:1085DC00033F4040403F1F2040201F3F4038403F5A
:1085EC00631408146303047804036159494D430070
:1085FC007F4141410204081020004141417F0402A7
:10860C00010204404040404000030708002054543D
:10861C0078407F284444383844444428384444281B
:10862C007F385454541800087E090218A4A49C786E
:10863C007F0804047800447D40002040403D007FCA
:10864C001028440000417F40007C047804787C08AA
:10865C000404783844444438FC182424181824247E
:10866C0018FC7C08040408485454542404043F4463
:10867C00243C4040207C1C2040201C3C4030403C92
:10868C0044281028444C9090907C4464544C4400F2
:10869C000836410000007700000041360800020156
:1086AC000204023C2623263C1EA1A161123A404042
:1086BC00207A3854545559215555794121545478C0
:1086CC0041215554784020545579400C1E52721259
:1086DC0039555555593954545459395554545800E1
:1086EC0000457C410002457D420001457C40F0295B
:1086FC002429F0F0282528F07C54554500205454AA
:10870C007C547C0A097F49324949493232484848ED
:10871C0032324A4848303A4141217A3A4240207834
:10872C00009DA0A07D39444444393D4040403D3C2F
:10873C0024FF2424487E4943662B2FFC2F2BFF0952
:10874C0029F620C0887E0903205454794100004446
:10875C007D413048484A32384040227A007A0A0A31
:10876C00727D0D19317D2629292F282629292926A4
:10877C0030484D4020380808080808080808382FE9
:10878C0010C8ACBA2F102834FA00007B0000081473
:10879C002A142222142A1408AA005500AAAA55AA9F
:1087AC0055AA000000FF00101010FF00141414FF55
:1087BC00001010FF00FF1010F010F0141414FC0047
:1087CC001414F700FF0000FF00FF1414F404FC1451
:1087DC001417101F10101F101F1414141F0010104A
:1087EC0010F0000000001F101010101F10101010BF
:1087FC00F010000000FF101010101010101010FFDF
:10880C0010000000FF140000FF00FF00001F1017F5
:10881C000000FC04F414141710171414F404F400DE
:10882C0000FF00F714141414141414F700F71414A4
:10883C0014171410101F101F141414F4141010F02B
:10884C0010F000001F101F0000001F14000000FC9F
:10885C00140000F010F01010FF10FF141414FF148B
:10886C001010101F00000000F010FFFFFFFFFFF0C2
:10887C00F0F0F0F0FFFFFF0000000000FFFF0F0F13
:10888C000F0F0F38444438447C2A2A3E147E0202CF
:10889C000606027E027E0263554941633844443C1D
:1088AC0004407E201E2006027E020299A5E7A599AF
:1088BC001C2A492A1C4C7201724C304A4D4D3030E6
:1088CC0048784830BC625A463D3E494949007E01D1
:1088DC0001017E2A2A2A2A2A44445F444440514AF0
:1088EC00444040444A51400000FF0103E080FF0037
:1088FC000008086B6B083612362436060F090F0673
:10890C00000018180000001010003040FF0101009A
:10891C001F01011E00191D1712003C3C3C3C0000BD
:10892C00000000000000000000000000000000003B
:10893C0000000000795C0B00A9670B00A1400B0044
:10894C00FD580B00235A0B003F5A0B00BB590B0070
:10895C00595A0B008F5A0B00AB5A0B000000000049
:10896C000000000043630B0039630B002F630B0006
:10897C0025630B0019630B000D630B0055750B0081
:10898C005D750B0001630B00F9620B00EF620B00CD
:10899C00E5620B008D750B0000081018202830388C
:1089AC0000000000000000006170700025592D25AA
:1089BC006D2D25645425483A254D3A2553257A00CA
:1089CC0061736374696D65000000000000000000B5
:1089DC00BD6A0B00AD6A0B00AF6A0B000000000013
:1089EC0000000000CF6B0B00376C0B000D6C0B0004
:1089FC00A9670B00FF6B0B00D16B0B00E16B0B003D
:108A0C00316C0B00F16B0B00C96B0B00000000000C
:108A1C0000000000A16D0B000D6E0B00E56D0B004E
:108A2C00A9670B00B56D0B00D16D0B00C36D0B006E
:108A3C00DF6D0B00A36D0B00A76D0B000000000099
:108A4C0000000000456E0B008F6E0B00676E0B0074
:108A5C00476E0B006F6E0B00776E0B007F6E0B007A
:108A6C00876E0B00776972696E670072656376209A
:108A7C006572726F72203D202564000000000000BA
:108A8C0000000000856F0B00A96F0B0093740B00A6
:108A9C00B76F0B00896F0B00000000000000000096
:108AAC0049430B007D430B00016F0B001B6F0B0048
:108ABC0029730B00456F0B009F710B00796F0B0036
:108ACC0031720B0071700B00CD710B00DD730B005C
:108ADC006D710B007B6F0B002D6F0B00BD6F0B00CE
:108AEC0051700B000000000000000000F7740B0038
:108AFC00ED740B00E3740B0099740B00D7740B002E
:108B0C00CB740B0055750B005D750B00BF740B001F
:108B1C00B7740B00AD740B00A3740B008D750B00B8
:108B2C00000000000000000015750B001F750B0005
:108B3C0029750B0033750B003D750B0049750B0047
:108B4C0055750B005D750B0065750B0071750B0091
:108B5C0079750B0083750B008D750B000053743108
:108B6C00395F53705F6D616B655F736861726564CB
:108B7C005F74616700000000C48B0B00698B0B00F5
:108B8C00248C0B00988B0B00488C0B004E31305F03
:108B9C005F637878616269763131375F5F636C61EE
:108BAC0073735F747970655F696E666F4500000062
:108BBC00000000008C8B0B0039790B004D790B00F9
:108BCC00E17A0B00E17A0B00B7790B00F9780B0016
:108BDC009F790B0061790B002B790B00248C0B0017
:108BEC00F48B0B008C8B0B004E31305F5F6378780D
:108BFC00616269763132305F5F73695F636C617398
:108C0C00735F747970655F696E666F450000000074
:108C1C0000000000E88B0B00E1790B00F5790B00EC
:108C2C00E17A0B00E17A0B00B7790B00F9780B00B5
:108C3C00B57A0B00417A0B00097A0B00C48B0B0040
:108C4C00508C0B00537439747970655F696E666F64
:108C5C00005245454E54206D616C6C6F63207375EA
:108C6C0063636565646564002F6D6E742F776F7236
:108C7C006B73706163652F776F726B737061636573
:108C8C002F4743432D31302D706970656C696E65CB
:108C9C002F6A656E6B696E732D4743432D31302DF2
:108CAC00706970656C696E652D34385F32303230A6
:108CBC00313132345F313630363138303634312F51
:108CCC007372632F6E65776C69622F6E65776C6952
:108CDC00622F6C6962632F7374646C69622F7261AA
:108CEC006E642E6300000000214C0B00BD510B0084
:108CFC004D630B00E1640B0099670B0025690B00B9
:108D0C0035690B0069690B0001750B0065760B006A
:048D1C000000000053
:108D2000040000001400000003000000474E55003E
:108D30008D8F89CC7BB5B8C2EFCDB6C9CFD581D4E4
:048D40000ED0D1BFC1
:048D4400000000002B
:108D4800C8AF0000E45700008CB900008813000089
:108D580050C30000102700000B0000000C000000AA
:108D68001000000000800000FF0000000F0000005D
:108D780009810B0016810B0023810B0030810B0049
:108D88003D810B0001C00000000103070F1F3F7F5A
:108D98000080C0E0F0F8FCFE0000000000000000C9
:108DA80000000000000000000000000000000000BB
:108DB80000000000000000000000000000000000AB
:108DC800000000000000000000000000000000009B
:108DD800000000000000008080800000000000000B
:108DE8000000000000000000008080C0C0000000FB
:108DF800000000000000000000000000000000006B
:108E0800000000000000000000000000000000005A
:108E1800000000000000000000000000000000004A
:108E280000000000000000000000000080C0E0F02A
:108E3800F8FCF8E00000000000000000000000005E
:108E4800000000000080808080800080800000009A
:108E580000808080808000FFFFFF0000000080808D
:108E6800808000008080000080FFFF80800080807C
:108E780000808080800080800000000000808000EA
:108E8800008C8E84000080F8F8F880000000000054
:108E98000000000000000000F0F0F0F0F0F0F0F04A
:108EA800F0F0F0F0E0E0C08000E0FCFEFFFFFF7FA4
:108EB800FFFFFFFFFF0000000000000000000000AF
:108EC800000000FEFFC70101010183FFFF00007CD5
:108ED800FEC70101010183FFFFFF0038FEC78301C0
:108EE800010183C7FFFF000001FFFF010100FFFF31
:108EF8000701010100007FFF80000000FFFF7F00E5
:108F080000FFFFFF000001FFFFFF0100000000005D
:108F18000000000000000000030F3F7F7FFFFFFFFD
:108F2800FFFFFFFFE7C7C78F8F9FBFFFFFC3C0F0DB
:108F3800FFFFFFFFFFFCFCFCFCFCFCFCFCF8F8F06E
:108F4800F0E0C00001030303030301030300000072
:108F580000010303030301010301000000010303EF
:108F680003030101030300000003030000000303DF
:108F780000000000000000010303030303010000D8
:108F880000010301000000030301000000000000CD
:108F9800000000000000000000000080C0E0F0F9C0
:108FA800FFFFFFFFFF3F1F0F87C7F7FFFF1F1F3D93
:108FB800FCF8F8F8F87C7DFFFFFFFFFFFFFFFF7F5D
:108FC8003F0F0700303000000000000000000000E4
:108FD800000000000000000000000000FEFEFC0091
:108FE8000000000000000000000000000000000079
:108FF8000000000000E0C0000000000000000000C9
:1090080000003030000000000000000000000000F8
:10901800000000000000000000C0FEFFFFFFFFFF8F
:10902800FFFFFFFF7F7F3F1F0F071F7FFFFFF8F83E
:10903800FFFFFFFFFFFEF8E0000000010000000056
:1090480000000000FEFE000000FCFEFC0C06060E00
:10905800FCF80000F0F81C0E0606060CFFFFFF00E7
:1090680000FEFE00000000FCFEFC00183C7E66E6E8
:10907800CE84000006FFFF0606FCFEFC0C06060672
:109088000000FEFE0000C0F8FC4E4646464E7C78C6
:1090980040183C76E6CECC800000000000000000BE
:1090A80000000000000000000000000001070F1F82
:1090B8001F3F3F3F3F1F0F0300000000000000005C
:1090C800000000000F0F0000000F0F0F000000004D
:1090D8000F0F000003070E0C18180C060F0F0F00D7
:1090E80000010F0E0C180C0F070100040E0C180CD1
:1090F8000F070000000F0F00000F0F0F0000000007
:1091080000000F0F00000007070C0C181C0C0606C7
:1091180000040E0C180C0F070000000000000000EF
:109128000000000000000000000000000000000037
:109138000000000000000000000000000000000027
:109148000000000000000000000000000000000017
:109158000000000000000000000000000000000007
:1091680000000000000000000000000000000000F7
:1091780000000000000000000000000000000000E7
:1091880000000000000000000000000000000000D7
:109198000000000000000000CC890B00C0E40320A0
:1091A80000000000000000000000000000000000B7
:1091B80000000000000000000000000000000000A7
:1091C8000000000000000000000000000000000097
:1091D8000000000000000000000000000000000087
:1091E8000000000000000000000000000000000077
:1091F8000000000000000000000000000000000067
:04920800ECE703206C
:10920C00FFFFFFFF00000102030405060708090A1F
:10921C000B0C0D0E0F101112131415161718191A1A
:08922C001B1C1D1E1F20280061
:049234007856341222
:04000003B000401CED
:00000001FF
