:02000002B0004C
:1040000000400B005C870B00000006000C0005025E
:084010000401A60F00000000EE
:0440180070750B00B4
:10401C0009480A49884208B505D0094A824202D0AB
:10402C00121A03F0E3F90748074A0021121A03F0A9
:10403C00EBF9014808BD00BF8CE0032088820B001F
:10404C0038E5032038E50320EDE7032070B5074E73
:10405C00074C02F061F9A41BA4080025AC4200D166
:10406C0070BD56F8043B98470135F7E730820B00DA
:10407C0058820B0000F032BA08B500F0F3FABDE834
:10408C00084002F001B901F075BE01F073BE01F0F9
:10409C0079BE000008B5034A03490C2001F0BEFDAF
:1040AC00FEE700BF09590B0084750B000078B0FACD
:1040BC0080F0400970470123037070472F2810B51A
:1040CC0004460DD9094A0A490A2001F0A7FD094BFB
:1040DC0004F01F04D3F81005E04000F0010010BDFF
:1040EC001F28F4D84FF0A043F4E700BF09590B0088
:1040FC0099750B00000300502DE9F843DFF82C8173
:10410C00876898F80030484DBFF35B8F13F0010FB0
:10411C00044609D14046FFF7C9FF28B101F086FBE0
:10412C0028604046FFF7C7FFBFB22B683F01DE5D3A
:10413C0098F80030BFF35B8FD9074FEA461909D4C2
:10414C003A48FFF7B3FF28B101F070FB28603748FD
:10415C00FFF7B1FF2B683B445E7806F01F0646EA7A
:10416C0009063046FFF7AAFF3046FFF7A7FFE768BE
:10417C0098F80030BFF35B8FDA07C6B209D42B482E
:10418C00FFF794FF28B101F051FB28602748FFF797
:10419C0092FFBFB22B683F0113F8079098F80030DC
:1041AC00BFF35B8FDB074FEA491909D41F48FFF7B0
:1041BC007DFF28B101F03AFB28601C48FFF77BFF1C
:1041CC002B681F447D7805F01F0545EA0905284634
:1041DC00FFF774FF2846FFF771FF237CC0B203F092
:1041EC0003030EB143F0040308B143F008039A082B
:1041FC00013B22740D2B0BD8DFE803F0070C0F0CDE
:10420C000A120707120A0C0F0C076369013363616A
:10421C00BDE8F8836369013BF9E763690233F6E7AC
:10422C006369023BF3E700BF3CE5032038E503205C
:10423C0010B403685A6899681B68541001EB62004B
:10424C00D20748BF0A595DF8044B48BFD3581847EA
:10425C00012A38B5044602D10B68236003E0022A18
:10426C0003D0032A0DD0002038BD0C200D68FFF7B9
:10427C000AFF03460028F0D095E8070083E8070002
:10428C00EBE700680028EED00C21FFF700FFEAE70F
:10429C00F0B58DB002AD85E80600064695E8030042
:1042AC0005AC84E805001F460C2000230A93FFF799
:1042BC00EAFE024620B194E8030082E8030097600E
:1042CC000B4B0B930B4B0A939DF8503008920093B9
:1042DC009DF848209DF94C3008A9304602F092F91F
:1042EC000A9B1BB108A90322084698470DB0F0BDE4
:1042FC003D420B005D420B000EB403B503AB002135
:10430C0053F8042B019301F044FF02B05DF804EB69
:10431C0003B0704738B584690A4B036005467CB11D
:10432C006368013B63605BB9236820469B689847D0
:10433C00A368013BA3601BB923682046DB68984740
:10434C00284638BDE87F0B0010B50446FFF7E2FFA6
:10435C0020461C21FFF79BFE204610BD2DE9F04F97
:10436C000F460446164689B00221384602F02AFE52
:10437C000221304602F026FEDFF858B1E660002339
:10438C00C4E90137236063614FF4FA6001F0B6FAB7
:10439C00D4F808A09BF800304D4DBFF35B8F13F0A1
:1043AC00010F09D15846FFF781FE28B101F03EFA02
:1043BC0028605846FFF77FFE1FFA8AFA2B684FEAEF
:1043CC000A1A13F80A809BF80030BFF35B8FD907E9
:1043DC004FEA481909D43F48FFF768FE28B101F0AD
:1043EC0025FA28603B48FFF766FE2B68534493F888
:1043FC00018008F01F0848EA09084046FFF75EFEF6
:10440C004046FFF75BFED4F80CA09BF80030BFF3DE
:10441C005B8FB0F1000818BF4FF00108DA0709D420
:10442C002C48FFF743FE28B101F000FA2860294818
:10443C00FFF741FE1FFA8AFA2B684FEA0A1A13F8A3
:10444C000A909BF80030BFF35B8FDB074FEA4919EA
:10445C0009D42048FFF72AFE28B101F0E7F92860BB
:10446C001C48FFF728FE2B689A449AF8015005F077
:10447C001F0545EA09052846FFF720FE2846FFF7E9
:10448C001DFE08B148F00208DFF84C9084F810804B
:10449C0000254FF0FF3823462A4649463846CDE9D9
:1044AC0000580295CDF810900595FFF7F1FECDE977
:1044BC000695CDE90185009508AA304612E906005B
:1044CC002346FFF7E5FE204609B0BDE8F08F00BF9C
:1044DC003CE5032038E5032005410B0030B599B0CD
:1044EC0002F03CF84FF4165102F028F8002001F0CD
:1044FC001DFA43F698250446002001F017FA001B1C
:10450C0061F10001A84271F1000307D202F026F814
:10451C0002F018F810B901F01DFCEDE702F01EF8DE
:10452C0002F010F83C2202213748384D00F096FE7C
:10453C00354800F023FEC82001F07AFE324800F026
:10454C00A5FD01242C23CDE9013470231422102164
:10455C002D4800932E4B01F045F82B4800F00EFE31
:10456C003C222948022100F079FE2146264801F020
:10457C003DF922462448274C002101F03CF9212228
:10458C0025492148FFF7B8FE1F4800F0F7FD002130
:10459C00102002F017FD214800F043F91F4800F0ED
:1045AC0079F900231A461946606801F08BFB382212
:1045BC0000210AA802F028FF4C230593184B069300
:1045CC000A220023CDE90723194605AA606809933E
:1045DC0001F098FB002360681A46194601F052FB63
:1045EC0000226068114601F055FB28B101F0B6FFBE
:1045FC002946FFF781FEF3E701F0B0FF0949FFF709
:10460C007BFE19B030BD00BFB0E50320AE760B00C9
:10461C00BA760B0018E7032095760B00FCE5032017
:10462C00A3760B00B0760B00F8B50C4C0C4E20604A
:10463C000D4617462168A9420BDC3A4689B2304632
:10464C0000F0D4FA304600F025F9236801332360DA
:10465C00F0E7BDE8F840024800F032BB14E6032056
:10466C00FCE5032073B5214B214C1888214D02F039
:10467C00D3FC214B003818BF0120187001F0F4FF57
:10468C00666901F0F3FF7F232E6000930023194627
:10469C005F22304601F0C0FD184EC1B230601848A0
:1046AC0000F0E7FA174B1A68174B1968174B186884
:1046BC00FFF7BAFF01F052FF2A6815493368FFF77C
:1046CC001BFE144B1D6801F0CFFF656101F0CEFF9E
:1046DC00102002F0B4FC104B1860104BFF221A6033
:1046EC000F4B07221A6002B070BD00BFACE0032074
:1046FC00E4E5032018E60320ACE5032010E60320D4
:10470C00FCE50320B0E00320B4E003201CE603200A
:10471C00B3760B00B8E0032020E60320A8E50320C5
:10472C0040E5032008B51E491E4801F0B7FC1E4A9F
:10473C001E4B12681A601E4A1E4812685A601E4AA6
:10474C0012689A601D4A1268DA601D4A12681A6172
:10475C001C4A12685A611C4A12689A6102F0F0FAFB
:10476C001A4802F0EDFA0421194800F079FC0223F2
:10477C0005221021174800F07BF8174B17481A88B0
:10478C00174B1988FFF7EAFD164B0022C3E90022EC
:10479C00A2F580329A60BDE80840032001F04EBAC1
:1047AC00B2760B00D4E503207CE5032060E5032002
:1047BC0098E0032044E50320A0E0032090E00320D0
:1047CC008CE0032094E003209CE003208CE5032084
:1047DC00B0E50320FCE50320A8E00320E4E503207A
:1047EC00A4E0032080E5032038B50446C0680D46DC
:1047FC0008B101F0C7FAA379062B0CBF04200320E3
:10480C0010FB05F080B2A08001F0B4FAE06028B192
:10481C00A288002102F0F8FD658038BDA080608080
:10482C00FBE710B504460121C07902F0CBFBE0791F
:10483C00002102F0D8FB0123237010BD37B503789B
:10484C0005460C461BB1C079002102F0BBFB2B784E
:10485C00EC715BB1A0B20121019002F0B3FB0198A5
:10486C00002103B0BDE8304002F0BDBB03B030BD49
:10487C0070B50025044616468371C0E903550570D2
:10488C000572FFF7B1FF20463146FFF7D7FF2046F0
:10489C0070BD0000C368002B00F0A4812DE9F04F1F
:1048AC008379023BDBB2042B9CBFBF4A52F82340F6
:1048BC0085B0054688BF322401F028F82B69C01A50
:1048CC00A042F9D3B94CAE88D4F800351BB9D4F852
:1048DC006035002B7EDBB64CD4F8003523B9D4F808
:1048EC006035002BC0F26E81B24CD4F80035002B31
:1048FC0000F04481EB79B04AB04C1268190102EB1C
:10490C000313575CAE495B78D1F8FC2042F08072FF
:10491C00C1F8FC20226803F01F0343EA4713012768
:10492C003A432260A988D5F80C80D4F804909F40B3
:10493C00002944D04FF0000E72464FF0A04118F8F9
:10494C0001CB0820802663689B1A462BFBD9626832
:10495C00D1F808351CEA060F43EA0703C1F80835FD
:10496C002FD063689B1A282BFBD9D1F80C35013852
:10497C0043EA07034FEA5606C1F80C35E3D1AB887E
:10498C000EF1010E1FFA8EFE7345D8D84FF430711C
:10499C0003FB01F163689B1A462BFBD96368A3EBFD
:1049AC0009098945C0F0E4804FF4967000F0A6FF29
:1049BC00A988D5F80C80D4F804900029BAD10A46FD
:1049CC00E8E763689B1A112BCFD863689B1A112BED
:1049DC00F7D9CAE7D4F86435002BBFF67CAFD4F80E
:1049EC006835002BBFF677AFD4F86C35002BBFF6CB
:1049FC0072AF3601331D1846009301F0BBF9002845
:104A0C003FF478AFAB88002B00F0ED80EA68013BF7
:104A1C0012FA83F702F1FF3E002348F2060248F235
:104A2C000D011EF801CF1CF0800F0CBF93468B4676
:104A3C001CF0400F0CBF16460E461CF0200F0CBF8E
:104A4C009046884603F10109CDF80880019603F1E0
:104A5C0002081FFA89F9019E20F813B01FFA88F892
:104A6C0020F81960029E20F8186003F103081CF06E
:104A7C00100F1FFA88F80CBF93468B4620F818B01D
:104A8C0003F104081CF0080F1FFA88F80CBF9346BA
:104A9C008B4620F818B003F105081CF0040F1FFA20
:104AAC0088F80CBF93468B4620F818B003F1080A1F
:104ABC0003F1060807339BB21CF0020F1FFA88F8AB
:104ACC000CBF93468B46CDF80CA01CF0010F20F8C0
:104ADC0018B015BF20F8131020F813201FFA8AF312
:104AEC00BDF80C3077459CD1591C023389B29BB26E
:104AFC0049005B004FF400474752009AC7522E4BB7
:104B0C0056081F6800221423C4F80425C4F80C2589
:104B1C00C4F80835C4F81425C4F81025C4F82005C9
:104B2C00C4F82465C4F82825C4F82C25EB7907EBC8
:104B3C00031C1B010121FE5C9CF8013003F01F03D8
:104B4C0043EA4613C4F86035C4F80015C4F81021C4
:104B5C00A160D4F81031002BFBD000234FF0FF32B2
:104B6C00C4F81031C4F80035C4F8602501F00AF916
:104B7C0000F0CCFE286105B0BDE8F08FD4F86035AC
:104B8C00002BBFF6B7AED4F86435002BBFF6B2AE2F
:104B9C00D4F86835002BBFF6ADAED4F86C35002BCD
:104BAC00BFF6A8AE25E700BF24790B0000C001407A
:104BBC00001002400020024024E60320001000E018
:104BCC0000ED00E0D4F86435002BBFF68DAED4F8C0
:104BDC006835002BBFF688AED4F86C35002BBFF6C9
:104BEC0083AE06E770470423022183E743888B4298
:104BFC00F0B52DD9067AC2F30743C2F30724D5B218
:104C0C003EB1734374437543C3F30723C4F30724C2
:104C1C002D0A90F806C0C768BCF1060F0CBF04261D
:104C2C0003264E43ACF1020CB919BCF1060F1DD88A
:104C3C00DFE80CF0041C08040F040400BC554B7096
:104C4C008D7005E0FE2B28BFFE23BB554D708C707C
:104C5C00F0BDBB554C708D70037A120E13B9D2B2E5
:104C6C00CA70F5E75A43C2F30722F9E7BB554C70FB
:104C7C00E6E7037A4A1CD2B2934270B51FD0013BCF
:104C8C0013F0FF03C4680CD0FF291FBF110201F100
:104C9C00FF31B1FBF3F39BB204BF4FF6FF71B1FBD5
:104CAC00F3F325468688291B89B28E4206D92978CA
:104CBC005943C1F3072105F8011BF3E7027270BDDC
:104CCC008288C068002102F09FBB000008B500F08C
:104CDC00ADFD014B186008BD24E60320F0B5457E00
:104CEC00BDF81440022D69D0032D00F09980012DE0
:104CFC006CD10589D2432A4412B2002A5DDBB0F98B
:104D0C000850954259DD0029BEBF5B181BB200212B
:104D1C00B0F90A00CD188542C4BF431A1BB2002B50
:104D2C004BDDC1F3C400DFF820C102EBC01211F05F
:104D3C000701DBB20CEB02001AD0C1F10805404EA2
:104D4C00EDB2AB42775D3FBFA5EB030EFF2646FAF3
:104D5C000EF637401CF80260012C0CBF3E43BE43DC
:104D6C00AB420CF8026028D308390B44DBB280301C
:104D7C00072B19D9012C4FF0FF3518BF0025EDB2C8
:104D8C0000F180011A46083AD2B2072A01F8805C79
:104D9C0001F18001F7D8A3F10802C2F3C402013279
:104DAC0000EBC21003F007033BB1264AD25C037838
:104DBC00012C0CBF134393430370F0BD4589D243C0
:104DCC002A44CD180189491B12B209B2002AF4DB1E
:104DDC00B0F90A509542F0DD0029BEBF5B181BB23A
:104DEC000021B0F90870CE18BE42C4BF6B1A1BB2BA
:104DFC00002BE2DDD010802510FB05111248014478
:104E0C0002F0070001228240012CD2B20B440CD1DB
:104E1C008B42D2D011F8010B104301F8010CF7E7CB
:104E2C00CD184189491B09B267E7D243D2B28B42F4
:104E3C00C3D011F8010B104001F8010CF7E700BFCB
:104E4C00C4E00320BCE00320CCE00320F0B5457E99
:104E5C00BDF81440022D34D0032D00F09B80012DA1
:104E6C0037D1D5180289521B12B20029C0F2918099
:104E7C00B0F90A508D4240F38C80002ABEBF9B18BB
:104E8C001BB20022B0F90870D618BE42C4BFAB1AD0
:104E9C001BB2002B7DDDC810802510FB0522454878
:104EAC00024401F0070001218140012CC9B21344D6
:104EBC0075D19A426DD012F8010B084302F8010C1F
:104ECC00F7E70589C9432944D5184289521B09B211
:104EDC0012B200295DDBB0F908508D4259DD002A71
:104EEC00BEBF9B181BB20022B0F90A00D518854230
:104EFC00C4BF831A1BB2002B4BDDC2F3C400DFF816
:104F0C00B4C001EBC01112F00702DBB20CEB0100D4
:104F1C001AD0C2F10805284EEDB2AB42775D3FBF07
:104F2C00A5EB030EFF2646FA0EF637401CF801607F
:104F3C00012C0CBF3E43BE43AB420CF8016028D39E
:104F4C00083A1344DBB28030072B19D9012C4FF0EF
:104F5C00FF3518BF0025EDB200F180011A46083A62
:104F6C00D2B2072A01F8805C01F18001F7D8A3F1D5
:104F7C000802C2F3C402013200EBC21003F00703B3
:104F8C003BB10E4AD25C0378012C0CBF1343934304
:104F9C000370F0BD4589C943294409B265E7C9438B
:104FAC00C9B29A42F5D012F8010B084002F8010C74
:104FBC00F7E700BFCCE00320C4E00320BCE00320F3
:104FCC0070470000F8B50D1E064614461F462DDB33
:104FDC0000F016FCA84229DD002C27DB304600F03F
:104FEC0012FCA04222DD304600F008FC02281ED044
:104FFC00032825D0012804D13389E2431A442C46D6
:10500C0015B2002C2246B8BFE21DD210802112FB33
:10501C0001550E49012204F007044B5702FA04F41F
:10502C0064B297420CBF2343A3434B55F8BD31895F
:10503C0072890139E4434D1B14442DB224B2E0E7CC
:10504C007389013B5B1B25461CB2DAE7CCE00320DD
:10505C0010B524210446FFF71AF8204610BD0000B5
:10506C0038B5402204460D46802100F0A7FA064BC5
:10507C002360FF2384F8213063774FF6FF73E383BB
:10508C0084F82050204638BD40790B0002484FF47C
:10509C008062002102F0B8B9CCE0032013B50B4CB0
:1050AC002178BFF35B8F11F001010BD120460191E8
:1050BC00FEF7FCFF019928B1054800F0DFFE204601
:1050CC00FEF7F9FF024802B010BD00BF28E603202E
:1050DC002CE6032007B590F8223043B10191FFF77D
:1050EC00DDFF019903B05DF804EB00F07BBF0B46CC
:1050FC00817F407F012203B05DF804EB01F0B6BF65
:10510C0038B590F91D30013304460D461DD090F989
:10511C002100012180B201F066FF94F91F000021EB
:10512C0080B201F060FF94F92100002180B201F0FF
:10513C005AFF29462046FFF7CDFF94F921000121A3
:10514C00BDE8384080B201F04EBF02F00DF894F982
:10515C001B1001F033FB02F007F8036800219B6879
:10516C00984702F001F8036829469B68984701F0BC
:10517C00FBFFBDE8384001F028BB0000F8B5212149
:10518C000446FFF7BDFF00212046FFF7B9FF7F2142
:10519C002046FFF7B5FF22212046FFF7B1FF002183
:1051AC002046FFF7ADFF07212046FFF7A9FF94F932
:1051BC001D30294F01332AD094F92100012180B2EE
:1051CC0001F011FF94F91F00012180B201F00BFFD7
:1051DC0094F92100002180B201F005FF012000F0BC
:1051EC008DFB4FF48065013D17F8011B2046ADB2D5
:1051FC00FFF770FF002DF6D1012000F07FFB94F932
:10520C0021000121BDE8F84080B201F0ECBE002580
:10521C0001F0AAFF94F91B1001F0D0FA01F0A4FFE1
:10522C00036840219B68984705F11006B6B201F05F
:10523C009BFF0368795D9B6898476B1C9DB2AE42DF
:10524C00F5D101F091FF01F0C0FAB6F5806F00D1F5
:10525C00F8BD3546DCE700BFCCE0032038B590F94B
:10526C001D300177013304460D46C27600F0C9802B
:10527C0090F91F00012180B201F0A4FE94F92100E5
:10528C00012180B201F09EFE94F82230002B00F038
:10529C00A68094F92100012180B201F0A4FEFFF751
:1052AC00FDFE012100F008FEFFF7F8FE102100F0D2
:1052BC0073FEFFF7F3FE002100F012FEFFF7EEFE87
:1052CC0000F0E6FD94F92000012180B201F07AFE95
:1052DC0094F92000012180B201F085FE012000F03C
:1052EC00A7FF94F92000002180B201F07CFE0A2077
:1052FC0000F09EFF94F92000012180B201F073FEB2
:10530C002046AE21FFF7FCFE2046D521FFF7F8FE24
:10531C0020468021FFF7F4FE2046A821FFF7F0FE7F
:10532C0020463F21FFF7ECFE2046D321FFF7E8FE95
:10533C0020460021FFF7E4FE20464021FFF7E0FE67
:10534C008D212046FFF7DCFE012D0CBF102114210E
:10535C002046FFF7D5FE20462021FFF7D1FE204640
:10536C000021FFF7CDFE2046A121FFF7C9FE204604
:10537C00C821FFF7C5FE2046DA21FFF7C1FE204603
:10538C001221FFF7BDFE81212046FFF7B9FE012D4A
:10539C000CBF9F21CF212046FFF7B2FED92120461A
:1053AC00FFF7AEFE012D0CBF2221F1212046FFF7A5
:1053BC00A7FE2046DB21FFF7A3FE20464021FFF786
:1053CC009FFE2046A421FFF79BFE2046A621FFF757
:1053DC0097FE2046AF21BDE83840FFF791BE94F907
:1053EC001D00012180B201F0EDFD94F91E00012198
:1053FC0080B201F0E7FD94F82230002B3FF462AF4D
:10540C0047E701F0B1FE01F0CFF95BE72DE9F04F72
:10541C0085B01F46BDF93880BDF83C30A8EB0209B9
:10542C00A7EB010AB9F1000FB8BFC9F10009BAF135
:10543C00000FB8BFCAF1000AD14583460C46154689
:10544C0004DD3A462C4647460D469046BC4205DDE7
:10545C002A464546904622463C4617463E1BB2B26B
:10546C000092A8EB050282EAE271A1EBE271C6F3AD
:10547C00C03202FA86F64545B4BF01224FF0FF3226
:10548C00019176100292BC421CDCDBF800200393E5
:10549C00D145D2F81080C7BF294622462A4621465C
:1054AC005846C047019A039BB61AB1B236B2002EC9
:1054BC0005DA029A1544009A56182DB236B2013408
:1054CC0024B2E0E705B0BDE8F08F2DE9F347BDF855
:1054DC002C800768BDF92890CDF800800446FF6940
:1054EC0016468A461D46B8472368CDF8008009F158
:1054FC00FF323244DF6951462B46204612B2B84780
:10550C002368CDF800809F6932464B4651462046B1
:10551C00B8476B1E03EB0A012368CDF828809D6900
:10552C0032464B4609B22046AC4602B0BDE8F047C5
:10553C00604737B5013B13440468BDF8185001951A
:10554C001BB2009364690B46A04703B030BD37B55E
:10555C00BDF818500468CDE90025013B0B44646983
:10556C001BB2A04703B030BD2DE9F347BDF928901D
:10557C00BDF82C80054692460C46CE18B4420BDA88
:10558C002B68CDF800809F6921464B465246284631
:10559C000134B84724B2F1E702B0BDE8F08713B587
:1055AC0002680191B0F90E100091546AB0F90C30F8
:1055BC0000221146A04702B010BD704730B54281A1
:1055CC00C2814FF0FF320024054D4261012244603C
:1055DC0005600181818104610283827630BD00BF48
:1055EC00747E0B002DE9F04F89B0CDE90323BDF992
:1055FC004870BDF94C300593FA1DCDE9010148BF47
:10560C0007F10E020024BDF850304FEAE20B25469C
:10561C004FF0800905992AB291422ADD049A02EBD7
:10562C00040A039A2A444FF0000812B20FFA88F0C9
:10563C0087421FFA88F119DDC0101AF800C001F07A
:10564C00070049FA00F01CEA000F0CD00298014444
:10565C00019800680069CDE90623064609B2019855
:10566C00B047DDE9062308F10108DFE701355C44AA
:10567C00D0E709B0BDE8F08F2DE9F04F2DED028B8E
:10568C008DB007460491BDF860100591BDF864100B
:10569C000691B0F90C1004989DF86850814252DDC7
:1056AC00B7F90E1091424EDD062111FB0504002CBA
:1056BC0049DD02EBC504002C45DD03EB83030B93A2
:1056CC0093B2079308339BB2089100240993052CDD
:1056DC001CBF2C4B0B9A079E16BF1B1900239B5CFF
:1056EC000393049AABB20A9304FB05F313FA82F307
:1056FC001BB204EB020A08EE103AB0460FFA85F919
:10570C000FFA8AFA039BDB072FD5012D3B681FD1BB
:10571C00D3F810B0059B32B251463846D847039B9C
:10572C005B0803930A9B01369844099BB6B2B342BB
:10573C001FFA88F8E6D1089B013B013413F0FF03F4
:10574C0064B20893C3D10DB0BDEC028BBDE8F08FF1
:10575C00059ACDE9009218EE101AD3F824B00FFA7E
:10576C0088F24B463846D847D9E7DDE90523934202
:10577C00D5D0012D3B6803D1D3F810B0069BCAE7F6
:10578C00069AE6E770790B0030B50A2985B0044615
:10579C0007D1027E638A03EBC20363820023238258
:1057AC0021E00D291FD0037E0293C38A0193838AC3
:1057BC000093B0F912200B46B0F91010FFF75CFF04
:1057CC00207E238A00EB400103EB4103A17E1BB238
:1057DC000246238239B1B4F90C106FF0050505FBB4
:1057EC0000118B42D6DC012005B030BD012938BF39
:1057FC000121017670478182C2827047407E7047DA
:10580C00B0F90C007047B0F90E00704708B5024BA8
:10581C001B689B68019308BD6802030008B5024B26
:10582C001B68DB68019308BD6802030008B5024BD6
:10583C001B681B68019308BD2C02030008B5024BC2
:10584C001B685B68019308BD2C02030008B5024B72
:10585C001B689B68019308BD2C02030008B5024B22
:10586C001B68DB68019308BD2C02030008B5024BD2
:10587C001B681B69019308BD2C02030008B5024B81
:10588C001B685B69019308BD2C02030008B5024B31
:10589C001B689B69019308BD2C02030008B5024BE1
:1058AC001B68DB69019308BD2C02030008B5024B91
:1058BC001B681B6A019308BD2C02030008B5024B40
:1058CC001B685B6A019308BD2C02030008B5024BF0
:1058DC001B681B6B019308BD2C02030008B5024B1F
:1058EC001B685B69019308BD6C02030008B5024B91
:1058FC001B685B68019308BD1802030008B5024BD6
:10590C001B68DB68019308BD1802030008B5024B45
:10591C001B681B69019308BD1802030008B5024BF4
:10592C001B685B69019308BD1802030008B5024BA4
:10593C001B68DB6D019308BD1802030008B5024B10
:10594C001B685B6C019308BD4802030008B5024B51
:10595C001B685B69019308BD6402030008B5024B28
:10596C001B681B6A019308BD6402030008B5024B57
:10597C001B689B6A019308BD6402030008B5024BC7
:10598C001B68DB68019308BD3C02030008B5024BA1
:10599C001B681B69019308BD3C02030008B5024B50
:1059AC001B685B69019308BD3C02030008B5024B00
:1059BC001B689B69019308BD3C02030008B5024BB0
:1059CC001B68DB69019308BD3C02030008B5024B60
:1059DC001B681B6A019308BD3C02030008B5024B0F
:1059EC001B689B6A019308BD3C02030008B5024B7F
:1059FC001B681B6C019308BD3C02030008B5024BED
:105A0C001B68DB68019308BD2802030008B5024B34
:105A1C001B689B69019308BD2802030008B5024B63
:105A2C001B68DB69019308BD2802030008B5024B13
:105A3C001B681B6A019308BD2802030008B5024BC2
:105A4C001B685B6A019308BD2802030008B5024B72
:105A5C001B689B6A019308BD2802030008B5024B22
:105A6C001B68DB6A019308BD2802030008B5024BD2
:105A7C001B681B6B019308BD2802030008B5024B81
:105A8C001B685B6B019308BD2802030008B5024B31
:105A9C001B681B6C019308BD2802030008B5024B60
:105AAC001B689B69019308BD3802030008B5024BC3
:105ABC001B68DB69019308BD3802030008B5024B73
:105ACC001B681B6A019308BD3802030008B5024B22
:105ADC001B689B6A019308BD3802030008B5024B92
:105AEC001B681B6B019308BD3802030008B5024B01
:105AFC001B689B6B019308BD3802030008B5024B71
:105B0C001B681B68019308BD3002030008B5024BEB
:105B1C001B689B68019308BD3002030008B5024B5B
:105B2C001B68DB68019308BD3002030008B5024B0B
:105B3C001B681B69019308BD3002030008B5024BBA
:105B4C001B685B69019308BD3002030008B5024B6A
:105B5C001B68DB69019308BD3002030008B5024BDA
:105B6C001B681B6A019308BD3002030008B5024B89
:105B7C001B685B6A019308BD3002030008B5024B39
:105B8C001B681B6C019308BD3002030008B5024B67
:105B9C001B685B6C019308BD3002030008B5024B17
:105BAC001B681B68019308BD4C02030008B5024B2F
:105BBC001B685B68019308BD4C02030008B5024BDF
:105BCC001B681B69019308BD4C02030008B5024B0E
:105BDC001B685B69019308BD4C02030008B5024BBE
:105BEC001B689B69019308BD4C02030008B5024B6E
:105BFC001B68DB69019308BD4C02030008B5024B1E
:105C0C001B681B6A019308BD4C02030008B5024BCC
:105C1C001B689B6A019308BD4C02030008B5024B3C
:105C2C001B685B6B019308BD6002030008B5024B57
:105C3C001B681B6D019308BD6002030008B5024B85
:105C4C001B685B68019308BD2002030008B5024B7A
:105C5C001B685B69019308BD2002030008B5034B68
:105C6C001B68D3F88830019308BD000020020300A4
:105C7C0008B5034B1B68D3F89430019308BD0000A2
:105C8C002002030008B5024B1B685B68019308BD3A
:105C9C004002030008B5024B1B689B68019308BDCA
:105CAC004002030008B5024B1B68DB68019308BD7A
:105CBC004002030008B5024B1B681B69019308BD29
:105CCC004002030008B5024B1B685B69019308BDD9
:105CDC004002030008B5024B1B689B69019308BD89
:105CEC004002030008B5024B1B68DB69019308BD39
:105CFC004002030008B5024B1B681B6A019308BDE8
:105D0C004002030008B5024B1B689B6A019308BD57
:105D1C004002030008B5024B1B681B6B019308BDC6
:105D2C004002030008B5024B1B685B6B019308BD76
:105D3C004002030008B5024B1B681B6C019308BDA5
:105D4C004002030008B5024B1B685B6C019308BD55
:105D5C004002030008B5024B1B689B68019308BD09
:105D6C004402030008B5024B1B68DB6B019308BDB2
:105D7C004402030008B5024B1B681B68019308BD65
:105D8C001C02030008B5024B1B685B68019308BD3D
:105D9C001C02030008B5024B1B689B68019308BDED
:105DAC001C02030008B5024B1B685B6A019308BD1B
:105DBC001C02030008B5024B1B68DB6A019308BD8B
:105DCC001C02030008B5024B1B68DB6B019308BD7A
:105DDC001C02030008B5024B1B681B6C019308BD29
:105DEC001C02030008B5024B1B685B6C019308BDD9
:105DFC001C020300002240681146FFF77BBF002203
:105E0C0040681146FFF78EBF40680022FFF782BF43
:105E1C004068002281F00101FFF764BF0023406855
:105E2C001A461946FFF756BF002340681A46194612
:105E3C00FFF748BF002240681146FFF73BBF002226
:105E4C0040681146FFF726BF406800220221FFF789
:105E5C0029BF002340681A46FFF714BF024B0322E8
:105E6C005A60024A1A60704734E60320AC7E0B007D
:105E7C000021FFF78BBE0021FFF780BE10B5044652
:105E8C0008462170FFF762FE00236360204610BDB8
:105E9C0013B504460078FFF7EEFF58B9207801904F
:105EAC004FF6FF71FFF72AFE019802B0BDE81040D3
:105EBC00FFF7DEBF02B010BD13B5044600780191A8
:105ECC00FFF7D9FF019948B920780190FFF71EFE22
:105EDC00019802B0BDE81040FFF7CABF02B010BD78
:105EEC0013B5044600780191FFF7C5FF019948B935
:105EFC0020780190FFF712FE019802B0BDE8104027
:105F0C00FFF7B6BF02B010BD400830B518600024D2
:105F1C0018688842E5B206D90134082C02D0400832
:105F2C001860F5E70725024B5B5D137030BD00BFB1
:105F3C00E07E0B002DE9F04188B000230446007888
:105F4C0002930E461746FFF796FF054600BB94F8E2
:105F5C0000800146142203A801F056FA0B232A46AE
:105F6C0003A94046ADF80C30FFF700FE04988DF8FD
:105F7C00075002AB0DF1070207FB06F1FFF7C4FF58
:105F8C0020789DF80710FFF7D1FD2078FFF770FF00
:105F9C00029808B0BDE8F08138B5044600780D468B
:105FAC00FFF769FF0346D0B9616899B10C4A12F842
:105FBC00010B854202D00133082BF8D10133DBB23F
:105FCC000122D9402046FFF7B5FF2078BDE83840C4
:105FDC00FFF74EBF20782946FFF7A8FDF5E738BD3F
:105FEC00E07E0B0008B50078FFF7A8FDC0B208BD35
:105FFC00054B02221A60054B054A9A600020C3E942
:10600C000000FFF71BBE00BF48E603203CE6032060
:10601C000000FFFF10B50446006808B1FFF7B2FEA0
:10602C000023C4E90133236010BD38B504460D4686
:10603C0000680131FFF7AEFE10B1C4E90005012084
:10604C0038BD10B50368044623B143688B4201D3B5
:10605C00012010BD2046FFF7E8FF0028F9D0A36807
:10606C00002BF5D122681370F2E737B50D461146B7
:10607C0001920446FFF7E5FF019A28B92046FFF785
:10608C00C9FF204603B030BDA2602946206801F04C
:10609C00ADF92268A3680021D154F2E7002313B5AF
:1060AC00C0E9003304468360037341B10846019193
:1060BC0001F0EAF9019902462046FFF7D6FF204687
:1060CC0002B010BD10B58368044613B1032201461B
:1060DC009847204610BD0000024800230360FFF7DC
:1060EC002DBC00BF4CE60320F8B506460D468F18B4
:1060FC000024BD420CD0336815F8011B9B68304658
:10610C009847031E01DB1C44F3E7002C08BF1C4618
:10611C002046F8BD13B50446084659B1019101F06B
:10612C00B3F923680199DB680246204602B0BDE84A
:10613C001040184702B010BD03689B68184738B56B
:10614C000D210546FFF7F8FF0A2104462846FFF704
:10615C00F3FF204438BD30B58BB00023012A8DF8F5
:10616C00243098BF0A2209AC0D46B1FBF2F101FBB9
:10617C00125303F0FF03092B94BF30333733DBB2D8
:10618C00AA4204F8013DEFD92146FFF7C3FF0BB03B
:10619C0030BD2DE9F04186B000AF05460E46381DE6
:1061AC00142114463B60FFF7FDFD13280ED8391D52
:1061BC002846FFF7AFFF04461EB12846FFF7BFFF86
:1061CC00044420461837BD46BDE8F08100F10803B1
:1061DC0023F00703E846ADEB030D2246411C3B6858
:1061EC006846FFF7DFFD69462846FFF793FF044634
:1061FC00C546E1E7014B024A1A60704750E603209E
:10620C00F07E0B00024B1A68024B1A60704700BFFD
:10621C00CCE4032054E603208A4210B507D0441A7C
:10622C000298C01A4443501A94FBF0F0184410BD65
:10623C000021FFF70BBD0000014B00229A60704754
:10624C0058E60320014B1860704700BFD0E40320D0
:10625C0008B50B4B43B100F081F903681B699847F3
:10626C00002801DDAFF30080064B43B100F03CFF8A
:10627C0003681B699847002801DDAFF3008008BD57
:10628C00000000000000000008B5FFF7E1FFFFF779
:10629C0045FB014B186008BD40E703200548064A42
:1062AC00064908B5121A01F0A1F8054B054A1A6007
:1062BC0008BD00BF00F4032004F4032084820B000B
:1062CC0000F403201E1C279A07B5002300931A46DE
:1062DC006FF07701FFF7CCFC03B05DF804FB000016
:1062EC0007B543880A2B08D0502B0BD1094B1B68E0
:1062FC004BB103B05DF804EB1847FFF7E5FF03B0B3
:10630C005DF804FB002300931A466FF07701FFF74A
:10631C00AFFCF4E76CE6032010B512480021FFF740
:10632C0061FD114B1A68114B9A42114B0CBF0122A3
:10633C0000221A7001D0FFF7B1FFFFF7D7FA04461D
:10634C0001F06AF80B4B13B12046AFF3008000212B
:10635C000848FFF707FDBDE8104007480021FFF78C
:10636C007DBC00BF51620B0000F403201E1C279A59
:10637C0068E6032000000000ED620B00704710B5CA
:10638C0018210446FDF783FE204610BDF0B5037DB1
:10639C00062B8DB00E4600F104074FF0000412D00E
:1063AC0000F1080515F8011D0A223046FFF7D3FE4F
:1063BC00AF42044419D0002CF4D02E213046FFF704
:1063CC00BBFE0444EEE72F236A4639460A208DF8BB
:1063DC000040FFF7BBFA684601F056F833680246F6
:1063EC00DB68694630469847044620460DB0F0BD40
:1063FC0010B5054B0446112240F8043B002101F076
:10640C0003F8204610BD00BF187F0B000346074A57
:10641C0010B543F8042B01F1100251F8044B43F86A
:10642C00044B9142F9D10A781A7010BD187F0B00F9
:10643C00037D042B04D14068003818BF012070473D
:10644C00062B07D143683BB983682BB9C3681BB9CA
:10645C000069F1E7002070470120704710B59DF8E6
:10646C00084044EA032343EA024242EA016104235E
:10647C004160037510BD000007B5064B0360CB7877
:10648C0000938B784A780978FFF7E8FF03B05DF842
:10649C0004FB00BF187F0B004174704770477047B6
:1064AC0008B50021007CFFF799FB40EAE07008BDBD
:1064BC0008B50121007CFFF791FB40EAE07008BDB4
:1064CC0008B5007CFFF782FB20EAE07008BD08B538
:1064DC00007CFFF773FB20EAE07008BD13B504469F
:1064EC00007C0191FFF772FB0028019901DC607CB4
:1064FC0020B1207CFFF77AFB20EAE07002B010BDDF
:10650C00007CFFF77BBB10B514210446FDF7BFFDE3
:10651C00204610BD10B54FF47A730446084600218E
:10652C00C4E90113044B23600123207463741146E6
:10653C00FFF734FB204610BD2C7F0B00007C0022A3
:10654C00FFF734BB007CFFF761BB10B51422044687
:10655C00002100F059FF204610BD000010B50F4C73
:10656C0088B003A8FFF7F1FF2178BFF35B8F11F020
:10657C0001010FD120460191FDF798FD019948B119
:10658C0003AA0748FFF7C6FF2046FDF794FD054810
:10659C0000F026FF024808B010BD00BF70E60320D3
:1065AC0074E60320A9640B00826810B50AB900F0E8
:1065BC0001FEBDE81040C36818470000F8B5104F45
:1065CC0057F8204006460D4634B12046FFF77AFDB9
:1065DC0010212046FDF75BFD1020FDF754FD04460D
:1065EC0050B100238360AB6833B10222294698472F
:1065FC00EB68E360AB68A36047F826402046F8BD23
:10660C0088E60320F0B587B00546039117461E4671
:10661C00FFF744F903992846FFF7D0FF0446E8B189
:10662C0000218E424FF00403ADF815108DF81710B1
:10663C008DF81430A2BF05A99DF830308DF81630B6
:10664C00009102460749A8BF8DF815603B462846C5
:10665C00FFF71CF910B1002007B0F0BD201E18BFC9
:10666C000120F9E7B5650B00FFF728B9FFF71EB954
:10667C0070474174704708B5007CFFF7AFF920EA0A
:10668C00E07008BD08B5007CFFF780F920EAE070E7
:10669C0008BD08B5007CFFF789F940EAE07008BD39
:1066AC0008B5007CFFF77AF940EAE07008BD007C81
:1066BC00FFF784B937B5457C04462DB1207C03B077
:1066CC00BDE83040FFF75AB9007C0191FFF786F91D
:1066DC0000280199F2DC284603B030BD10B5142116
:1066EC000446FDF7D4FC204610BD000010B54FF455
:1066FC007A730446084611460022C4E90123044B70
:10670C002360012320746374FFF770F9204610BDD9
:10671C005C7F0B007047F8B5064615460C468F1883
:10672C00BC4206D0336814F8011B9B68304698476E
:10673C00F6E72846F8BD007C0022FFF777B9007C0D
:10674C000021FFF77BB9007C0021FFF77FB9007CAB
:10675C000021FFF783B9007C0021FFF787B910B542
:10676C0014210446FDF793FC204610BD38B50446B1
:10677C0015464FF47A730022C4E90123094B2174A6
:10678C00084623602946FFF781F9BF3008D16B69B1
:10679C00DB0705D56868FFF7F5FAE868FFF7F2FA4A
:1067AC00204638BD8C7F0B000023007C1A4619460E
:1067BC00FFF724B9007C0022FFF728B9C9B2FFF714
:1067CC00F9BF007C0022FFF729B90121FFF7F9BFBF
:1067DC0013B503688DF80710DC6B01224FF0FF3303
:1067EC000DF10701A04702B010BD10B40368DC6BBB
:1067FC004FF0FF33A4465DF8044B604713B51346C6
:10680C0002688DF80710D46B0DF107010122A04727
:10681C0002B010BD10B54369B3F88620B3F88430CC
:10682C009A42044608D06369B3F88420511CA3F83B
:10683C0084101344187910BD03681B69984700280D
:10684C00F1D14FF0FF30F6E7704743691868C04349
:10685C00C00F704770470000064B994210B500F10D
:10686C000C0405D0084600F0A9FC002808BF002441
:10687C00204610BDE87E0B0010B5AC210446FDF798
:10688C0006FC204610BDAC21FDF701BC2DE9F04102
:10689C004FF0000886B01C46C0F8048005460E4632
:1068AC0017464146102202A800F0AEFD631C09D029
:1068BC004FF47A73B4FBF3F203FB1244CDE90228D4
:1068CC005C430494686910230093006802AB41F2A6
:1068DC00050240F6FF71FFF7E1F8002807DAFFF731
:1068EC0071FA03686B60002006B0BDE8F08168693E
:1068FC00002300683A463146FFF7F0F8031EEEDB42
:10690C001846F1E730B587B0044601AD6846FFF78D
:10691C00B3FD0FCD04340FC42B68237007B030BD0A
:10692C0070B54D69054B04468C3544F8043B06465E
:10693C000FCD0FC42B682370304670BD187F0B0031
:10694C002DE9F0439846036893B00D460024DB6AAA
:10695C0006461746984728466B4622462146009421
:10696C00FEF75CFF0546002863D1009B002B4BD043
:10697C005B69002B48D006A8FFF73AFD009B5C69C9
:10698C006378022B04D1211D06A8FFF7BBFF26E07C
:10699C000A2B24D11122294601A800F035FDA36849
:1069AC00002B38D004F108030DF1040C18341868CE
:1069BC005968624603C20833A3429446F7D10623B2
:1069CC0001A90CA88DF81430FFF720FD0DF1340C43
:1069DC00BCE80F0007AC0FC4DCF80030237006A82D
:1069EC00FFF726FD80B1336807ADD3F82090124B2A
:1069FC000C930FCD0DAC0FC42B6823703A46434655
:106A0C000CA93046C84705460098FEF7FFFE2846FD
:106A1C0013B0BDE8F083E368002BC3D14FF6FF70D1
:106A2C00D4F81090FEF79AFF8145BBD104F1140104
:106A3C00AAE72546E8E700BF187F0B0038B5436985
:106A4C001A68002A054610DAB3F88620B3F88430A9
:106A5C009A420AD103681B699847044628B92B68E7
:106A6C002846DB6A9847204638BD0120FCE710B564
:106A7C004369B3F88620B3F884309A42044605D0B3
:106A8C006369B3F884201344187910BD03681B693B
:106A9C0098470028F4D14FF0FF30F6E7F8B543697A
:106AAC001746B3F88620B3F884309A4205460E4652
:106ABC0016D06969B1F88430B1F88640E41ABC424A
:106ACC0028BF3C46043322461944304600F08EFC65
:106ADC006A69B2F884302344A2F884302046F8BDA9
:106AEC0003681B6998470028E3D14FF0FF34F5E7A2
:106AFC0042690023A2F884304269A2F886307047BC
:106B0C002DE9F0411F4603680C46DB6A8AB0054646
:106B1C0016469847237DD5F81480042B0CBF022011
:106B2C000A2006220121FEF7E1FFC8F800006B697C
:106B3C001B68002B08DA2B682846DB6A0024984770
:106B4C0020460AB0BDE8F0812846FFF7D1FFB7B167
:106B5C00002303A9F8B20393ADF81030FEF7BEFE84
:106B6C000028E8D1686906230093006803AB41F262
:106B7C000B0240F6FF71FEF791FF0028DBD11C22BF
:106B8C00002103A800F040FC237D042B1DD14FF401
:106B9C0007733046ADF80C30FEF7E8FEADF80E008A
:106BAC006068FEF7DBFE04906B691C22186803A971
:106BBC00FEF784FF0028BED104340FCC6D698C35F0
:106BCC000FC523682B700124BAE740F61C2330460E
:106BDC00ADF80C30FEF7CAFE05AEADF80E00231D65
:106BEC0004F1140718685968324603C20833BB42D3
:106BFC001646F7D1D8E7000030B54269B2F88630B6
:106C0C008BB004462BB1B2F884209A4201D1FFF725
:106C1C006FFF61690868002818DBB1F886507F2D7A
:106C2C0014D804310823C5F180022944FEF74EFF25
:106C3C00002813DD6369B3F886200AB9A3F8842011
:106C4C006369B3F886201044A3F886006369B3F82F
:106C5C008600B3F88430C01A0BB030BDFFF7B2F821
:106C6C0003680B2BF2D0FFF7ADF803680B2BEDD0BC
:106C7C0020230025CDE90235FFF7A4F80368019322
:106C8C00084B0949009302AA2B463220FEF7CEFF8F
:106C9C0063691868FEF70AFF63694FF0FF321A60E8
:106CAC00D4E700BFB37F0B00AC7F0B0010B543697A
:106CBC0004461868002801DBFEF7F8FE63694FF004
:106CCC00FF321A606069112200218C3000F09CFBAD
:106CDC002046BDE81040FFF70BBF10B5002304465B
:106CEC000160C0F884308830FFF782FB204610BD6D
:106CFC0073B500234FF47A72C0E901320E4A036176
:106D0C00026043610446AC200191FDF7BCF9051EFD
:106D1C0005F10C0608D00123C5E90133074B019995
:106D2C002B603046FFF7D9FF2046C4E90565FFF715
:106D3C00DFFE02B070BD00BFE87F0B00CC7F0B0004
:106D4C0010B54FF0FF310446FFF7D2FF204610BDBF
:106D5C0010B504460068002801DBFEF7A7FE2046AC
:106D6C0010BD0C30FFF7F4BF002240681146FEF74F
:106D7C00A1BF002240681146FEF7BCBF002240684C
:106D8C001146FEF7CFBF40680022FEF7C3BF406834
:106D9C00002281F00101FEF7A5BF002340681A46CE
:106DAC001946FEF797BF002340681A461946FEF7AE
:106DBC0089BF002240681146FEF76CBF4068002274
:106DCC000221FEF76FBF002340681A46FEF75ABF38
:106DDC00024B04225A60024A1A60704718E70320DB
:106DEC0034800B00002340681A46FEF74BBF406806
:106DFC0000220221FEF756BF002240681146FEF722
:106E0C0049BF002240681146FEF754BF002340687A
:106E1C001A461946FEF756BF002340681A46194613
:106E2C00FEF758BF40680021FEF784BF4068002180
:106E3C00FEF788BF4068002281F00101FEF752BFC7
:106E4C0040680022FEF766BF002240681146FEF73C
:106E5C0069BF002240681146FEF74CBF2DE9F04394
:106E6C0095B014460D460746FFF7C2FA00211C22C6
:106E7C000DA8009100F0C8FA40230C9320466B46F5
:106E8C000CAA0021FEF7CAFC044600284BD102468E
:106E9C0001216868FEF70EFF0221804622466868D1
:106EAC00FEF708FF009E81462146002E3BD00029AC
:106EBC0039D17368022B03D00A2B11D0F669F4E791
:106ECC00B8F1000FFAD0716906A8043107ADFFF7CD
:106EDC00D3FA0FCD3C1D0FC42B6823704146EDE750
:106EEC00B9F1000FEAD07469102201A800F08CFAF5
:106EFC0006238DF8143001AD04F10803183418681A
:106F0C0059682A4603C20833A3421546F7D101A992
:106F1C0006A807ADFFF77AFA0FCD3C1D0FC42B68FE
:106F2C0023704946CAE70098FEF770FC384615B046
:106F3C00BDE8F083024B034A1A6000225A60704786
:106F4C0020E7032070800B00232813B502D9002002
:106F5C0002B010BDA0F10B03022B1AD8174C2178EC
:106F6C00BFF35B8F11F001010BD120460191FDF7AE
:106F7C009DF8019928B11248FEF780FF2046FDF7D5
:106F8C009AF80F4B1878FEF7E9FD0028DFD10120A5
:106F9C00DEE7012809D800F0E7F80021007CFEF7B5
:106FAC006DFD80F00100C0B2D2E709380128EED89F
:106FBC0000F09AF8007CFEF709FDF2E728E60320C2
:106FCC002CE60320232838B504460D460AD8FF29A1
:106FDC0008D0FFF7B9FF28B129462046BDE8384054
:106FEC00FEF734BC38BD38B504460D46FEF736FC0A
:106FFC00FF2810D0062804D84D2323FA00F0C3072D
:10700C0009D42046FFF7A0FF28B129462046BDE849
:10701C003840FEF72BBC38BD10B50446FEF71EFCFD
:10702C00031FDBB2012B08D92046FFF78DFF20B1DF
:10703C002046BDE81040FEF721BC002010BD0D28F5
:10704C0010B504469CBF0E34A4B22046FFF77CFF5B
:10705C0050B103212046FEF7F1FB032804D1204652
:10706C00BDE81040FEF732BC002010BD2DE9F04108
:10707C0090461F46072406460D46C4F10701B8F199
:10708C00000F12D147FA01F101F001013046FFF770
:10709C00AAFF01212846FFF7A6FF00212846FFF78B
:1070AC00A2FF013CE9D2BDE8F08147FA04F1EBE71D
:1070BC007047000038B5044614252A46002100F01C
:1070CC00A3F925804025074925812846258200F013
:1070DC006FF804496060284600F06AF8E0602046CA
:1070EC0038BD00BFA4800B0030B50E4D2978BFF31E
:1070FC005B8F11F0010487B011D12846FCF7D6FF45
:10710C0068B101A8FFF7D6FF01AA21460648FFF790
:10711C00EDFA2846FCF7CFFF044800F061F902486D
:10712C0007B030BD28E703202CE70320BD700B000F
:10713C007047000038B50A4B0360012304464361D5
:10714C000849202000F034F8202560600549A5602E
:10715C00284600F02DF8C4E90305204638BD00BFD1
:10716C0018000100A4800B0030B50E4D2978BFF338
:10717C005B8F11F0010487B011D12846FCF796FF04
:10718C0068B16846FFF7D6FF6A4621460648FFF706
:10719C00EDFA2846FCF78FFF044800F021F902486D
:1071AC0007B030BD44E7032048E703203D710B00D6
:1071BC00FCF76BBF08B5FEF7FDFD0000014900F0C0
:1071CC00F9B800BFC0800B007FB500241023CDE9B7
:1071DC000234036815469E6912686B46CDE900447B
:1071EC00B0479DF8043003F00603062B03BF009B49
:1071FC002B600120204604B070BD0098904214BF53
:10720C00012006207047000010B5034B03600446B4
:10721C0000F0CDF8204610BD00810B0010B50446DF
:10722C00FFF7F2FF20460821FCF731FF204610BD86
:10723C002DE9F0411F46DDE90834DDF8188098454A
:10724C000646154607D1079900F0B4F818B16571D8
:10725C000020BDE8F0813946304600F0ABF800283C
:10726C00F6D00123C4F800802571A371F0E738B57E
:10727C0015461C4600F09EF820B10823E360062357
:10728C002560237138BD73B505460C4601921E4628
:10729C0000F090F850B9032E08D82368019A5B6966
:1072AC002946204602B0BDE87040184702B070BDB8
:1072BC0010B5034B03600446FFF7A6FF204610BD34
:1072CC0060810B0010B50446FFF7F2FF20460C213D
:1072DC00FCF7DDFE204610BDF7B5089F974205462A
:1072EC000E4614460AD0A86802680897156A3146FB
:1072FC002246AC4603B0BDE8F04060471946019306
:10730C0000F058F8019B0028EDD0062003B0F0BD2A
:10731C002DE9F14F0D461946DDE90A4BDDE90CA6C6
:10732C0081461746984600F045F890B1002D346020
:10733C00377109DB61198A450CBF06210121B17136
:10734C00002001B0BDE8F08F0235F9D10123B371F3
:10735C00F6E7544506D15946484600F02BF808B1DB
:10736C007771EDE7D9F808000368CDE90CA6CDE9F3
:10737C000A4BDC693A4643462946A44601B0BDE8AF
:10738C00F04F60472DE9F04107460C4615461E4666
:10739C00FFF76DFF48B9B86803689F692A46334602
:1073AC002146BC46BDE8F0416047BDE8F08170471E
:1073BC0000207047814208B50ED0406803782A2B14
:1073CC000CD049680B782A2B08BF013100F052F819
:1073DC00B0FA80F0400908BD0120FCE70020FAE774
:1073EC00002301461A46184600F056B80A4491424A
:1073FC0000F1FF3300D1704710B511F8014B03F8C1
:10740C00014F9142F9D110BD02440346934200D181
:10741C00704703F8011BF9E738B5104B1D68AB6BCF
:10742C000446B3B91820FEF7A5FC0246A86320B9A0
:10743C000B4B0C484221FEF7CDFC0B490B4BC0E922
:10744C0000130B4B83600B23838100210120C2E9C5
:10745C000401AB6B00221C615A6138BDD0E40320DF
:10746C0099810B00B0810B000E33CDAB34126DE65D
:10747C00ECDE050010F8012B11F8013B012A28BFA6
:10748C009A42F7D0D01A7047034613F8012B002A02
:10749C00FBD1181A013870472DE9F843DFF8B88092
:1074AC000646D8F800001F460D46914600F056F8E7
:1074BC00254B1C6834B9254C1C60254B13B11B683B
:1074CC00C4F8883063681F2B07DDD8F8000000F083
:1074DC0047F84FF0FF30BDE8F8834EB3D4F888007E
:1074EC0088B91C4B23B9D8F8000000F038F8F0E745
:1074FC004FF48470FEF73EFC0028F4D00023C0E962
:10750C004033C4F88800636840F8239001229A4005
:10751C0000EB8301D0F800311343C0F80031022E88
:10752C00C1F8807002BFD0F804311343C0F80431A5
:10753C006368D8F800005A1C0233626044F8235088
:10754C0000F00EF80020C6E7E8E703205CE7032014
:10755C0000000000815D0B0034E50320704770478C
:10756C00704700001D400B0059400B0081400B0080
:10757C0085400B000000000043616C6C206F6E2096
:10758C0070757265207669727475616C00417373E5
:10759C00657274696F6E4661696C757265202A70CC
:1075AC005F70696E203C20283332202B2031362925
:1075BC00004E6F204368616E6765202D2043616E1D
:1075CC0063656C6C696E6720434D440A007B226FC7
:1075DC006E223A747275652C22736174223A002CF7
:1075EC0022627269223A002C22687565223A007B6D
:1075FC00226F6E223A66616C73657D0053656E6412
:10760C00696E6720436F6D6D616E6420746F2048E6
:10761C00756500505554202F6170692F002F6C69CF
:10762C00676874732F002F73746174652048545409
:10763C00502F312E31006B6565702D616C6976654C
:10764C0000486F73743A2000436F6E74656E742D2E
:10765C004C656E6774683A2000436F6E74656E7487
:10766C002D547970653A20746578742F706C61694B
:10767C006E3B636861727365743D5554462D3800DA
:10768C0046726F6D20487565004C696768742049B7
:10769C0074205570256300496F544E6574776F7272
:1076AC006B002E000A0A0025692025690A00000FCC
:1076BC00FFFFFFFFFFFFFFFFFFFFF000000FFFFFCB
:1076CC00FFFFFFFFFFFFFFFFF000000FFFFFFFFFBB
:1076DC00FFFFFFFFFFFFF000000FFFFFFFFFFFFFAB
:1076EC00FFFFFFFFF000000FFFFFFFFFFFFFFFFF9B
:1076FC00FFFFF000000FFFFFFFFFFFFFFFFFFFFF8B
:10770C00F000000FFFFFFFFFFFFFFFFFFFFFF00088
:10771C00000FFFFFFFFFFFFFFFFFFFFFF000000F59
:10772C00FFFFFFFFFC03FFFFFFFFF000000FFFFF59
:10773C00FFFFF070FFFFFFFFF000000FFFFFFFFFE8
:10774C00E3FE7FFFFFFFF000000FFFFFFFFFCFFF07
:10775C003FFFFFFFF000000FFFFFFFFF9FFF9FFFAA
:10776C00FFFFF000000FFFFFFFFF3FFFCFFFFFFF0A
:10777C00F000000FFFFFFFFF3FFFCFFFFFFFF00008
:10778C00000FFFFFFFFF7FFFE7FFFFFFF000000F81
:10779C00FFFFFFFE7FDFE7FFFFFFF000000FFFFFA3
:1077AC00FFFE7FDFE7FFFFFFF000000FFFFFFFFE94
:1077BC007F9FE7FFFFFFF000000FFFFFFFFE7F172B
:1077CC00E7FFFFFFF000000FFFFFFFFE7E07E7FF64
:1077DC00FFFFF000000FFFFFFFFF7F8FE7FFFFFFB2
:1077EC00F000000FFFFFFFFF3F9FCFFFFFFFF000F8
:1077FC00000FFFFFFFFF3FBFCFFFFFFFF000000FA9
:10780C00FFFFFFFF9FBF9FFFFFFFF000000FFFFF79
:10781C00FFFFDFFF9FFFFFFFF000000FFFFFFFFFE9
:10782C00CFFF3FFFFFFFF000000FFFFFFFFFE7FF61
:10783C007FFFFFFFF000000FFFFFFFFFE7FE7FFF62
:10784C00FFFFF000000FFFFFFFFFF7FE7FFFFFFFC2
:10785C00F000000FFFFFFFFFF7FEFFFFFFFFF00040
:10786C00000FFFFFFFFFF7FEFFFFFFFFF000000F11
:10787C00FFFFFFFFF7FEFFFFFFFFF000000FFFFF12
:10788C00FFFFFFFFFFFFFFFFF000000FFFFFFFFFF9
:10789C00FE03FFFFFFFFF000000FFFFFFFFFFC03E5
:1078AC00FFFFFFFFF000000FFFFFFFFFFFFFFFFFD9
:1078BC00FFFFF000000FFFFFFFFFFFFFFFFFFFFFC9
:1078CC00F000000FFFFFFFFFFC03FFFFFFFFF000C6
:1078DC00000FFFFFFFFFFC03FFFFFFFFF000000F97
:1078EC00FFFFFFFFFFFFFFFFFFFFF000000FFFFF99
:1078FC00FFFFFFFFFFFFFFFFF000000FFFFFFFFF89
:10790C00FFFFFFFFFFFFF000000FFFFFFFFFFFFF78
:10791C00FFFFFFFFF00000002C010000180000002A
:10792C00F40100002C0100005000000000000000D9
:10793C0000000000CD4F0B005D500B0095570B0065
:10794C00F5600B00D14F0B0019540B00594E0B0076
:10795C00E94C0B00D7540B0075550B00AB550B00C5
:10796C00C7550B0000000000003E5B4F5B3E3E6BBA
:10797C004F6B3E1C3E7C3E1C183C7E3C181C577DBD
:10798C00571C1C5E7F5E1C00183C1800FFE7C3E709
:10799C00FF0018241800FFE7DBE7FF30483A060E1B
:1079AC002629792926407F050507407F05253F5A62
:1079BC003CE73C5A7F3E1C1C08081C1C3E7F1422D2
:1079CC007F22145F5F005F5F06097F017F0066897D
:1079DC00956A606060606094A2FFA29408047E04C3
:1079EC000810207E201008082A1C08081C2A0808E9
:1079FC001E101010100C1E0C1E0C30383E383006A9
:107A0C000E3E0E06000000000000005F00000007A4
:107A1C00000700147F147F14242A7F2A12231308D2
:107A2C00646236495620500008070300001C2241AE
:107A3C00000041221C002A1C7F1C2A08083E080852
:107A4C000080703000080808080800006060002002
:107A5C00100804023E5149453E00427F40007249E5
:107A6C004949462141494D331814127F1027454589
:107A7C0045393C4A4949314121110907364949499F
:107A8C0036464949291E000014000000403400000D
:107A9C000008142241141414141400412214080276
:107AAC00015909063E415D594E7C1211127C7F49E9
:107ABC004949363E414141227F4141413E7F49493E
:107ACC0049417F090909013E414151737F0808086A
:107ADC007F00417F41002040413F017F081422413B
:107AEC007F404040407F021C027F7F0408107F3E95
:107AFC004141413E7F090909063E4151215E7F0902
:107B0C00192946264949493203017F01033F404068
:107B1C00403F1F2040201F3F4038403F6314081453
:107B2C006303047804036159494D43007F4141418B
:107B3C000204081020004141417F0402010204406C
:107B4C0040404040000307080020545478407F28F0
:107B5C004444383844444428384444287F385454E6
:107B6C00541800087E090218A4A49C787F08040409
:107B7C007800447D40002040403D007F10284400A8
:107B8C0000417F40007C047804787C080404783839
:107B9C0044444438FC1824241818242418FC7C0869
:107BAC00040408485454542404043F44243C4040E6
:107BBC00207C1C2040201C3C4030403C4428102899
:107BCC00444C9090907C4464544C440008364100E2
:107BDC000000770000004136080002010204023C5C
:107BEC002623263C1EA1A161123A4040207A38542B
:107BFC0054555921555579412154547841215554A6
:107C0C00784020545579400C1E52721239555555F6
:107C1C0059395454545939555454580000457C41E1
:107C2C000002457D420001457C40F0292429F0F0FA
:107C3C00282528F07C545545002054547C547C0A4B
:107C4C00097F4932494949323248484832324A4818
:107C5C0048303A4141217A3A42402078009DA0A018
:107C6C007D39444444393D4040403D3C24FF24246C
:107C7C00487E4943662B2FFC2F2BFF0929F620C089
:107C8C00887E090320545479410000447D413048DA
:107C9C00484A32384040227A007A0A0A727D0D191D
:107CAC00317D2629292F28262929292630484D407F
:107CBC0020380808080808080808382F10C8ACBA7B
:107CCC002F102834FA00007B000008142A142222FA
:107CDC00142A1408AA005500AAAA55AA55AA0000ED
:107CEC0000FF00101010FF00141414FF001010FF00
:107CFC0000FF1010F010F0141414FC001414F70012
:107D0C00FF0000FF00FF1414F404FC141417101FE0
:107D1C0010101F101F1414141F00101010F000006E
:107D2C0000001F101010101F10101010F010000089
:107D3C0000FF101010101010101010FF1000000099
:107D4C00FF140000FF00FF00001F10170000FC04D0
:107D5C00F414141710171414F404F40000FF00F7B3
:107D6C0014141414141414F700F714141417141016
:107D7C00101F101F141414F4141010F010F0000045
:107D8C001F101F0000001F14000000FC140000F066
:107D9C0010F01010FF10FF141414FF141010101F0B
:107DAC0000000000F010FFFFFFFFFFF0F0F0F0F01C
:107DBC00FFFFFF0000000000FFFF0F0F0F0F0F3839
:107DCC00444438447C2A2A3E147E02020606027E73
:107DDC00027E0263554941633844443C04407E2092
:107DEC001E2006027E020299A5E7A5991C2A492AA3
:107DFC001C4C7201724C304A4D4D30304878483032
:107E0C00BC625A463D3E494949007E0101017E2A29
:107E1C002A2A2A2A44445F444440514A444040445C
:107E2C004A51400000FF0103E080FF000008086B8E
:107E3C006B083612362436060F090F060000181888
:107E4C000000001010003040FF0101001F01011E56
:107E5C0000191D1712003C3C3C3C000000000000C7
:107E6C000000000000000000000000000000000006
:107E7C0095570B00F5600B00A1400B0019540B003B
:107E8C003F550B005B550B00D7540B0075550B0081
:107E9C00AB550B00C7550B000000000000000000A4
:107EAC005F5E0B00555E0B004B5E0B00415E0B00E2
:107EBC00355E0B00295E0B00316E0B00396E0B002A
:107ECC001D5E0B00155E0B000B5E0B00015E0B00C4
:107EDC00696E0B00000810182028303800000000D4
:107EEC00000000006170700025592D256D2D256452
:107EFC005425483A254D3A2553257A00617363740D
:107F0C00696D6500000000000000000099630B0023
:107F1C0089630B008B630B00000000000000000065
:107F2C00AB640B0013650B00E9640B00F5600B00F0
:107F3C00DB640B00AD640B00BD640B000D650B0026
:107F4C00CD640B00A5640B000000000000000000D5
:107F5C007D660B00E9660B00C1660B00F5600B003B
:107F6C0091660B00AD660B009F660B00BB660B00A9
:107F7C007F660B0083660B00000000000000000011
:107F8C0021670B006B670B0043670B0023670B002B
:107F9C004B670B0053670B005B670B0063670B00B1
:107FAC00776972696E670072656376206572726FAD
:107FBC0072203D202564000000000000000000003D
:107FCC0061680B0085680B006F6D0B0093680B00EC
:107FDC0065680B00000000000000000021430B004E
:107FEC0055430B00DD670B00F7670B00056C0B00AE
:107FFC0021680B007B6A0B0055680B000D6B0B00A6
:10800C004D690B00A96A0B00B96C0B00496A0B0097
:10801C0057680B0009680B0099680B002D690B0061
:10802C000000000000000000D36D0B00C96D0B00B8
:10803C00BF6D0B00756D0B00B36D0B00A76D0B00C6
:10804C00316E0B00396E0B009B6D0B00936D0B00AA
:10805C00896D0B007F6D0B00696E0B00000000003A
:10806C0000000000F16D0B00FB6D0B00056E0B00AA
:10807C000F6E0B00196E0B00256E0B00316E0B0092
:10808C00396E0B00416E0B004D6E0B00556E0B00E4
:10809C005F6E0B00696E0B0000537431395F5370C7
:1080AC005F6D616B655F7368617265645F74616756
:1080BC000000000000810B00A5800B0060810B000C
:1080CC00D4800B0084810B004E31305F5F63787875
:1080DC00616269763131375F5F636C6173735F74B2
:1080EC007970655F696E666F4500000000000000E6
:1080FC00C8800B0015720B0029720B00BD730B00AE
:10810C00BD730B0093720B00D5710B007B720B00CF
:10811C003D720B0007720B0060810B0030810B006D
:10812C00C8800B004E31305F5F637878616269768E
:10813C003132305F5F73695F636C6173735F747945
:10814C0070655F696E666F450000000000000000FE
:10815C0024810B00BD720B00D1720B00BD730B00A0
:10816C00BD730B0093720B00D5710B0091730B0058
:10817C001D730B00E5720B0000810B008C810B0052
:10818C00537439747970655F696E666F005245453A
:10819C004E54206D616C6C6F632073756363656501
:1081AC00646564002F6D6E742F776F726B737061E2
:1081BC0063652F776F726B73706163652F474343F1
:1081CC002D31302D706970656C696E652F6A656E26
:1081DC006B696E732D4743432D31302D706970657B
:1081EC006C696E652D34385F323032303131323457
:1081FC005F313630363138303634312F7372632F6D
:10820C006E65776C69622F6E65776C69622F6C692D
:10821C0062632F7374646C69622F72616E642E6377
:10822C000000000031470B00D94C0B00695E0B00BD
:10823C00FD5F0B00E5600B0001620B0011620B008F
:10824C0045620B00DD6D0B00416F0B000000000060
:04825C00000000001E
:10826000040000001400000003000000474E550009
:108270007767D8471287688410065E8381B665C920
:04828000F2BC7FCB02
:0482840000000000F6
:10828800C8AF0000E45700008CB900008813000054
:1082980050C30000102700000B0000000C00000075
:1082A80010000000008000000F0000000F00000018
:1082B800000103070F1F3F7F0080C0E0F0F8FCFEBD
:1082C80000000000000000000000000000000000A6
:1082D8000000000000000000000000000000000096
:1082E8000000000000000000000000000000000086
:1082F80000000000000000000000000000000080F6
:108308008080000000000000000000000000000065
:10831800008080C0C00000000000000000000000D5
:108328000000000000000000000000000000000045
:108338000000000000000000000000000000000035
:108348000000000000000000000000000000000025
:108358000000000080C0E0F0F8FCF8E00000000039
:108368000000000000000000000000000080808085
:10837800808000808000000000808080808000FF76
:10838800FFFF0000000080808080000080800000E7
:1083980080FFFF8080008080008080808000808057
:1083A8000000000000808000008C8E84000080F8AF
:1083B800F8F8800000000000000000000000000045
:1083C800F0F0F0F0F0F0F0F0F0F0F0F0E0E0C08065
:1083D80000E0FCFEFFFFFF7FFFFFFFFFFF00000044
:1083E8000000000000000000000000FEFFC70101BF
:1083F800010183FFFF00007CFEC70101010183FF2B
:10840800FFFF0038FEC78301010183C7FFFF00009B
:1084180001FFFF010100FFFF0701010100007FFFCD
:1084280080000000FFFF7F0000FFFFFF000001FF4A
:10843800FFFF010000000000000000000000000035
:10844800030F3F7F7FFFFFFFFFFFFFFFE7C7C78FD8
:108458008F9FBFFFFFC3C0F0FFFFFFFFFFFCFCFCC7
:10846800FCFCFCFCFCF8F8F0F0E0C000010303039E
:1084780003030103030000000001030303030101D8
:1084880003010000000103030303010103030000CB
:1084980000030300000003030000000000000001C7
:1084A80003030303030100000001030100000003AC
:1084B80003010000000000000000000000000000B0
:1084C80000000080C0E0F0F9FFFFFFFFFF3F1F0F33
:1084D80087C7F7FFFF1F1F3DFCF8F8F8F87C7DFF02
:1084E800FFFFFFFFFFFFFF7F3F0F07003030000057
:1084F8000000000000000000000000000000000074
:1085080000000000FEFEFC0000000000000000006B
:1085180000000000000000000000000000E0C000B3
:1085280000000000000000000000303000000000E3
:108538000000000000000000000000000000000033
:1085480000C0FEFFFFFFFFFFFFFFFFFF7F7F3F1F12
:108558000F071F7FFFFFF8F8FFFFFFFFFFFEF8E0A0
:10856800000000010000000000000000FEFE000006
:1085780000FCFEFC0C06060EFCF80000F0F81C0ED1
:108588000606060CFFFFFF0000FEFE00000000FCD0
:10859800FEFC00183C7E66E6CE84000006FFFF065F
:1085A80006FCFEFC0C0606060000FEFE0000C0F8F5
:1085B800FC4E4646464E7C7840183C76E6CECC804B
:1085C80000000000000000000000000000000000A3
:1085D8000000000001070F1F1F3F3F3F3F1F0F0311
:1085E8000000000000000000000000000F0F000065
:1085F800000F0F0F000000000F0F000003070E0C04
:1086080018180C060F0F0F0000010F0E0C180C0F96
:10861800070100040E0C180C0F070000000F0F00D4
:10862800000F0F0F0000000000000F0F00000007F0
:10863800070C0C181C0C060600040E0C180C0F076F
:108648000000000000000000000000000000000022
:108658000000000000000000000000000000000012
:108668000000000000000000000000000000000002
:1086780000000000000000000000000000000000F2
:1086880000000000000000000000000000000000E2
:1086980000000000000000000000000000000000D2
:1086A80000000000000000000000000000000000C2
:1086B80000000000000000000000000000000000B2
:1086C800087F0B00D4E40320000000000000000035
:1086D8000000000000000000000000000000000092
:1086E8000000000000000000000000000000000082
:1086F8000000000000000000000000000000000072
:108708000000000000000000000000000000000061
:108718000000000000000000000000000000000051
:0C8728000000000000000000ECE703204F
:10873400FFFFFFFF00000102030405060708090A02
:108744000B0C0D0E0F101112131415161718191AFD
:088754001B1C1D1E1F20280044
:04875C007856341205
:04000003B000401CED
:00000001FF
